:10100000975100009381811417610000130181B092
:101010001735000013050550973500009385854F5F
:10102000175600001306469563FCC5008322050091
:1010300023A055001305450093854500E3E8C5FE50
:10104000175500001305459397550000938505AC8F
:101050006378B5002320050013054500E36CB5FE59
:10106000EF00C021EF00C02A6F0000006780000081
:101070001306A000930500006F00801E130101FFFE
:10108000232611009307400263E6D70C13071000D4
:10109000938206009387050097480000938898671D
:1010A000638AE60A232481002322910003C80700F3
:1010B000138307009387170033870801034707004E
:1010C00013778700E31407FE1307D002630EE814BA
:1010D0001307B002630EE808B70300809383F3FFA1
:1010E000930400006392060A130700036308E814E0
:1010F0009302A0009306A00033F4530213030000F0
:1011000093080000130E9000930F9001930EF0FFD0
:1011100033DF5302130708FD6378EE001307F8FB73
:1011200063E0EF0A130798FC6354D70A630ED301F8
:101130001303F0FF636A1F0163061F0D1303100002
:10114000B3885802B30817019387170003C8F7FF45
:101150006FF05FFCEF0000128320C1009307600175
:101160002320F50013050000130101016780000032
:10117000B703008003C807009383F3FF930723009E
:1011800093040000E38206F613070001E396E6F6F7
:101190001307000393020001E310E8F603C70700FA
:1011A000930880051377F70DE31817F503C81700A8
:1011B0009302000193872700930600016FF0DFF38D
:1011C0001307F8F963E6EF00130798FAE340D7F640
:1011D0001307F0FF630CE30263840400B3081041BB
:1011E00063060600631A03062320B6000324810069
:1011F0008320C100832441001385080013010101ED
:1012000067800000E342E4F46FF05FF3130720020D
:101210002320E50093880300E30A06FC9385F7FF8B
:10122000938803006FF05FFC03C80700B7030080DA
:1012300093072300930410006FF0DFEA03C7070051
:1012400093088005930280001377F70D93068000C2
:10125000E31417EB6FF09FF5938308006FF01FFC0A
:1012600093060600138605009305050003A501817A
:101270006FF0DFE003A5018167800000130101FF2B
:10128000232481002320210197370000938787289A
:101290001734000013040428232611002322910090
:1012A00033898740638087021359294093040000E3
:1012B000832704009384140013044400E78007008C
:1012C000E3E824FF973700009387C7241734000012
:1012D000130444243389874013592940638E8700BF
:1012E0009304000083270400938414001304440033
:1012F000E7800700E3E824FF8320C1000324810086
:1013000083244100032901001301010167800000CB
:10131000130101FF2326110023248100375500000B
:101320001305C5E2EF10C01337550000130505E59E
:10133000EF100013370410F8232204003706B0F82A
:10134000B7E5F5059385051013054006EF00503D00
:10135000930720002322F4003706B0F8B7E5F5051F
:10136000938505103725000013050571EF00503BEC
:10137000375501F8EF201016930730002322F400B0
:1013800037550000130545E6EF10800D3755000076
:101390001305C5E6EF10C00CEF10405DEF00D0075D
:1013A000930600001306000093054000370511F86E
:1013B000EF1080099306000013060000930530002B
:1013C000370511F8EF1040089306000013060000DF
:1013D00093052000370511F8EF1000079306000071
:1013E0001306000093050000370511F8EF10C00543
:1013F000375500001305C5E7EF10800623AA0182C8
:1014000037550000130585E8EF108005130600002E
:101410006F00001113072000635CC7006340F70AE8
:1014200013078021635CC7086F008000635CC708F6
:101430001307C0213307E6023307F700131727000D
:10144000B70610003387E6009306F00F2320D7007D
:101450006F0040051307C0213307E6023307F7008A
:1014600013172700B70610003387E600B706010000
:10147000938606F02320D7006F00C002130740199F
:10148000634CF7061307C0213307E6023307F70062
:1014900013172700B70610003387E6009306F00FF6
:1014A0002320D700938717001307B0216348F7065E
:1014B0001387D7FF93065021E3EEE6F4130780214C
:1014C000E346F7F613076008E356F7F81307D01062
:1014D000E346F7FA1307C0213307E6023307F700A4
:1014E00013172700B70610003387E600B706FF0082
:1014F0002320D7006FF01FFB1307C0213307E6023C
:101500003307F70013172700B70610003387E600EC
:10151000B706FF002320D7006FF0DFF81306160090
:101520009307B02163C6C700930700006FF0DFF791
:10153000375500001305C5EAEF00907293060001CD
:101540003706100093052000370511F8EF00505FB3
:101550009307100013070000930600001306000015
:1015600093052000370511F8EF00106613064000C0
:1015700093052000370511F8EF00506A930600002C
:1015800037D61100130606C493052000370511F85D
:10159000EF0050661307100023A8E1823715000002
:1015A00013058538EF009003375500001305C5E794
:1015B000EF00106BEF10502537550000130585EC38
:1015C000EF00106A6F004010B70710F823A607005D
:1015D0006F0040119306C0211306C021B7055000CB
:1015E00037051000EF10002F6F000018B70712F832
:1015F00023A2070093060001370610009305400060
:10160000370511F8EF00D0539307100013070000BF
:10161000930600001306000093054000370511F8FB
:10162000EF00905A83A74183130720006386E700E9
:10163000130740006398E7189306000037D611009F
:101640001306464B93054000370511F8EF00905AFA
:1016500013070000930610001306000093053000E6
:10166000370511F8EF00D0529306000137069000BD
:1016700093053000370511F8EF00104F9306000076
:1016800037D61100130606C493053000370511F84C
:10169000EF005056B70712F81307100023A4E70015
:1016A00023A4070093054000370511F8EF00905878
:1016B000E31A05FE93053000370511F8EF00905747
:1016C000E31205FE0F500000EF10401503A7418301
:1016D00093072000E3FAE7EEB70710F813071000AE
:1016E00023A6E7001307000093061000130600006E
:1016F00093050000370511F8EF00904993060001AB
:101700003706100093050000370511F8EF00D045AB
:101710009306000037D61100130606C49305000097
:10172000370511F8EF00104DB70710F81307100038
:1017300023A8E70023A80700B70710F823A4E700B1
:1017400023A4070093050000370511F8EF00904E21
:10175000E31A05FE0F50000083A741839387F7FF2C
:1017600013071000E378F7E683A7418313072000EF
:101770006386E70013073000E378F7F4B70712F841
:101780001307500023A0E70083A74183130720001D
:10179000E38EE7E413074000E38AE7E41307500011
:1017A000638AE700B70712F81307200023A2E700B7
:1017B0006FF05FE4B70712F81307100023A2E700E9
:1017C0006FF05FE39306000037E61100130686D240
:1017D00093054000370511F8EF00D0416FF05FE747
:1017E00093952500B385A50023A0C5006780000060
:1017F00093957500B385A5009357560093972700DE
:10180000B387F50037270000B387E7001307100000
:101810003316C700638A060003A707003366E60095
:1018200023A0C7006780000003A707001346F6FF48
:101830003376E60023A0C700678000009395C500BB
:10184000B385A500B7072000B385F50023A0C50028
:101850006780000003254500135505011375F50F3A
:1018600067800000130101FF23261100232481005B
:10187000232291001304050093840500130504003E
:10188000EFF05FFDE30C05FE232094008320C100F0
:1018900003248100832441001301010167800000BB
:1018A000130101FF2326110093050500370501F8F8
:1018B000EFF05FFB8320C10013010101678000008E
:1018C000130101FF232611002324810013040500C6
:1018D0006F00C00013041400EFF09FFC03450400E8
:1018E000E31A05FE8320C1000324810013010101D6
:1018F00067800000130101FF2326110023248100CB
:1019000023229100930405001304C0016F004002DC
:1019100033D784001377F700B74700009387075148
:10192000B387E70003C50700EFF09FF71304C4FF78
:10193000E35004FE8320C10003248100832441007E
:101940001301010167800000130101FF232611002C
:101950002324810023229100930405001304C00175
:101960006F00400233D784001377F700B7470000B9
:1019700093874752B387E70003C50700EFF05FF294
:101980001304C4FFE35004FE8320C100032481003C
:10199000832441001301010167800000130101FF4E
:1019A000232611001375F50FEFF09FEF8320C10080
:1019B0001301010167800000130101FF23261100BC
:1019C000EFF01FF08320C1001301010167800000C8
:1019D000130101FD232611022324810223229102F7
:1019E0009304050063460500130401006F00C00264
:1019F0001305D002EFF09FFAB30490406FF0DFFEC2
:101A00001307A000B3E7E402938707032300F40061
:101A1000B3C4E40213041400E39404FE930701002A
:101A2000E300F4FE93070100630AF4001304F4FFDB
:101A300003450400EFF09FF66FF0DFFE8320C10244
:101A40000324810283244102130101036780000003
:101A5000130101FF232611001307000093077000F4
:101A600063C0E70293162700930700FFB397D700E0
:101A7000B377F50063860700130717006FF01FFEAA
:101A8000EFF09FEC8320C10013010101678000008B
:101A9000130101FF232611001307000093077000B4
:101AA00063C0E70293162700930700FFB397D700A0
:101AB000B377F50063860700130717006FF01FFE6A
:101AC000EFF05FE38320C100130101016780000094
:101AD000130101FC232E1100232C8100232A9100E5
:101AE000930405002322B1022324C1022326D1023C
:101AF0002328E102232AF102232C0103232E1103C0
:101B0000930741022326F100130400006F00C00177
:101B10008327C100138747002326E10003A50700A0
:101B2000EFF0DFE713041400B387840003C5070058
:101B3000630E050A93075002630EF506EFF01FE6E9
:101B40006FF05FFE8327C100138747002326E10063
:101B500003A50700EFF05FE66FF0DFFC8327C1000D
:101B6000138747002326E10003A50700EFF05FE697
:101B70006FF05FFB8327C100138747002326E10036
:101B800003A50700EFF0DFF06FF0DFF98327C10056
:101B9000138747002326E10003A50700EFF05FEB62
:101BA0006FF05FF83745000013058553EFF0DFE075
:101BB0006FF05FF713041400B387840083C7070036
:101BC000E38207F6938787FA93F6F70F130700026D
:101BD000E362D7FE93972600375700001307C7F537
:101BE000B387E70083A70700678007008320C10150
:101BF0000324810183244101130101046780000053
:101C0000130101FF23261100374500001305455835
:101C1000EFF01FEC6F000000130101FF23261100FD
:101C200013060000930500003705C0F8EFF01FC150
:101C30009306100013066000930500003705C0F8F6
:101C4000EFF01FBB13061000930560003705C0F8C6
:101C5000EFF01FB9B74700009387074873905730DC
:101C6000B71700009387078073A04730F327003031
:101C70003727000013078780B3E7E700739007302A
:101C80008320C1001301010167800000130101FFDF
:101C900023261100F327203463D2070213F7F7003D
:101CA0009307B000631AF700EF10C02D8320C10026
:101CB0001301010167800000EFF09FF4EFF05FF483
:101CC00003254500135505011375F50F67800000C6
:101CD000130101FF232611002324810023229100F8
:101CE000130405009384050013050400EFF05FFD65
:101CF000E30C05FE232094008320C100032481000F
:101D0000832441001301010167800000130101FFDA
:101D1000232611002324810023229100930405002F
:101D2000138405006F0000011304140013850400E0
:101D3000EFF01FFA83450400E39805FE8320C100FD
:101D40000324810083244100130101016780000006
:101D5000B7470F0093870724B3D5F502B7C7000034
:101D6000938787FF3306F60083270600B385A50215
:101D70003387F50083270600B307F740E3DC07FE4F
:101D80006780000083A705002324F50283A7450090
:101D90002326F50283A785002328F50283A7C50023
:101DA0002328F50483A70501232AF50483A7450109
:101DB000232CF504678000006304050067800000A1
:101DC000130101FF23261100B745000093854559F3
:101DD000370501F8EFF09FF36F000000130101FFDA
:101DE000232611003706B0F8B7E5F50593850510F1
:101DF0009307803E3305F502EFF09FF58320C10085
:101E00001301010167800000130101FD2326110267
:101E1000930730002324F100B78701009387076AF6
:101E20002326F100930720032328F1009307D0070E
:101E3000232AF100232CF1009307A00F232EF10099
:101E400093058100EFF01FF48320C1021301010309
:101E50006780000003254500135505011375F50F34
:101E60006780000003254500135585016780000049
:101E7000130101FF23261100232481002322910056
:101E8000130405009384050013050400EFF09FFC84
:101E9000E30C05FE232094008320C100032481006D
:101EA000832441001301010167800000130101FF39
:101EB00023261100232481001304050013050400C8
:101EC000EFF05FFAE30C05FE032504001375F50F30
:101ED0008320C100032481001301010167800000F9
:101EE00083A7C5002324F50083A705009387F7FF88
:101EF00003A7450013178700B3E7E70003A7850092
:101F000013170701B3E7E7002326F50067800000F9
:101F100003254500678000002322B500678000008C
:101F2000B7470F0093870724B3D5F502B7C7000062
:101F3000938787FF3306F60083270600B385A50243
:101F40003387F50083270600B307F740E3DC07FE7D
:101F500067800000130101FF23261100930505008F
:101F6000370501F8EFF0DFF08320C1001301010114
:101F700067800000130101FF232611002324810044
:101F8000130405006F00C00013041400EFF09FFC61
:101F900003450400E31A05FE8320C10003248100E9
:101FA0001301010167800000130101FF23261100C6
:101FB0002324810023229100930405001304C0010F
:101FC0006F00400233D784001377F700B747000053
:101FD00093870751B387E70003C50700EFF09FF72A
:101FE0001304C4FFE35004FE8320C10003248100D6
:101FF000832441001301010167800000130101FFE8
:10200000232611002324810023229100930405003C
:102010001304C0016F00400233D784001377F70028
:10202000B747000093874752B387E70003C507000F
:10203000EFF05FF21304C4FFE35004FE8320C100FD
:102040000324810083244100130101016780000003
:10205000130101FF232611001375F50FEFF09FEF19
:102060008320C1001301010167800000130101FFFB
:1020700023261100EFF01FF08320C100130101019E
:1020800067800000130101FD232611022324810231
:102090002322910293040500634605001304010006
:1020A0006F00C0021305D002EFF09FFAB304904016
:1020B0006FF0DFFE1307A000B3E7E4029387070386
:1020C0002300F400B3C4E40213041400E39404FEF8
:1020D00093070100E300F4FE93070100630AF40094
:1020E0001304F4FF03450400EFF09FF66FF0DFFEEA
:1020F0008320C102032481028324410213010103CE
:1021000067800000130101FF232611001307000060
:102110009307700063C0E70293162700930700FF40
:10212000B397D700B377F50063860700130717004E
:102130006FF01FFEEFF09FEC8320C100130101013F
:1021400067800000130101FF232611001307000020
:102150009307700063C0E70293162700930700FF00
:10216000B397D700B377F50063860700130717000E
:102170006FF01FFEEFF05FE38320C1001301010148
:1021800067800000130101FE232E110093078000D9
:102190002320F10023220100232401009307B0062D
:1021A0002326F10093050100370501F8EFF05FD316
:1021B0008320C1011301010267800000939525006F
:1021C000B385A50023A0C500678000009395750026
:1021D000B385A5009357560093972700B387F50062
:1021E00037270000B387E700130710003316C70036
:1021F000638A060003A707003366E60023A0C70032
:102200006780000003A707001346F6FF3376E60059
:1022100023A0C700678000009395C500B385A50083
:10222000B707200093874700B385F50003A5050095
:10223000678000009395C500B385A500B70720000F
:1022400093874700B385F50023A0C5006780000091
:10225000130101FF23261100930606009307C00017
:1022600063EEB7009397250037570000130707FE6A
:10227000B387E70083A707006780070013074004C0
:102280006F008006130740016F00000613078001EE
:102290006F0080051307C0016F00000513070002DF
:1022A0006F008004130740026F00000413078002D0
:1022B0006F0080031307C0026F00000313070003C1
:1022C0006F008002130740036F00000213078003B2
:1022D0006F0080011307C0036F00000113070004A3
:1022E0006F008000130700009387F5FF130520009F
:1022F000636AF5009307004063FAD7009306004035
:102300006F00C0009307D0006388F502B70710F88C
:10231000B307F70023A0D7003706B0F8B7E5F505F7
:102320009385051013055000EFF09FBF8320C10077
:102330001301010167800000937636006FF01FFDE6
:10234000939575003385A5002320C5009386F6FF7D
:10235000B71700001387F7FFB3F6E600B3E6F60001
:102360002326D50067800000939575003385A5006E
:102370002328C5009386F6FFB71700001387F7FFE1
:10238000B3F6E600B3E6F600232ED5006780000022
:10239000939575003385A5002324C500630E0700BF
:1023A000B7270000638E060037470000B3E7E70059
:1023B0002326F50067800000930700006FF09FFE62
:1023C000130700006FF09FFE939575003385A500FD
:1023D00093968600B3E6C60013170701B3E6E6003E
:1023E000232CD50063840700B7270000232EF500B7
:1023F00067800000939575003385A5001306F6FFEE
:102400002320C50263880600930730002326F502C7
:1024100067800000930710006FF05FFF93957500D1
:102420003385A5009307F0FF232AF5042328C5046C
:102430006780000093957500B385A50003A5C502CC
:10244000137515006780000093957500B385A5008E
:1024500093968600B3E6C60023A2D50467800000E9
:10246000130101FC232E1100232C8100232A91004B
:10247000930405002322B1022324C1022326D102A2
:102480002328E102232AF102232C0103232E110326
:10249000930741022326F100130400006F00C001DE
:1024A0008327C100138747002326E10003A5070007
:1024B000EFF01FBA13041400B387840003C50700AC
:1024C000630E050A93075002630EF506EFF05FB83E
:1024D0006FF05FFE8327C100138747002326E100CA
:1024E00003A50700EFF09FB86FF0DFFC8327C10062
:1024F000138747002326E10003A50700EFF09FB8EC
:102500006FF05FFB8327C100138747002326E1009C
:1025100003A50700EFF01FC36FF0DFF98327C100A9
:10252000138747002326E10003A50700EFF09FBDB6
:102530006FF05FF83745000013058553EFF01FB3C8
:102540006FF05FF713041400B387840083C707009C
:10255000E38207F6938787FA93F6F70F13070002D3
:10256000E362D7FE93972600375700001307470111
:10257000B387E70083A70700678007008320C101B6
:1025800003248101832441011301010467800000B9
:102590001307B0006364A71E130101FF2326110077
:1025A0009387050093D5150093F7170013152500A1
:1025B00037570000130787093305E5000327050097
:1025C00067000700639E0700374500001305455A62
:1025D000EFF01FE98320C1001301010167800000B3
:1025E000374500001305455DEFF09FE76FF09FFE54
:1025F000639A0700374500001305C55FEFF05FE6FB
:102600006FF05FFD3745000013054562EFF05FE5B1
:102610006FF05FFC639A07003745000013054564BF
:10262000EFF01FE46FF01FFB37450000130545670F
:10263000EFF01FE36FF01FFA639A070037450000C1
:102640001305C569EFF0DFE16FF0DFF837450000F3
:102650001305856CEFF0DFE06FF0DFF7639A07009A
:10266000374500001305056FEFF09FDF6FF09FF611
:102670003745000013058571EFF09FDE6FF09FF581
:10268000639A07003745000013058573EFF05FDD9F
:102690006FF05FF43745000013054576EFF05FDC1F
:1026A0006FF05FF3639A07003745000013058578E4
:1026B000EFF01FDB6FF01FF2374500001305857B3D
:1026C000EFF01FDA6FF01FF1639A07003745000043
:1026D0001305057EEFF0DFD86FF0DFEF3755000010
:1026E00013058580EFF0DFD76FF0DFEE639A070008
:1026F0003755000013058582EFF09FD66FF09FEDF0
:102700003755000013058585EFF09FD56FF09FECDE
:10271000639A07003755000013050588EFF05FD472
:102720006FF05FEB375500001305C58AEFF05FD3FC
:102730006FF05FEA639A0700375500001305458D77
:10274000EFF01FD26FF01FE9375500001305C58F5A
:10275000EFF01FD16FF01FE8639A070037550000B4
:102760001305C591EFF0DFCF6FF0DFE637550000BE
:1027700013058594EFF0DFCE6FF0DFE56780000092
:10278000130101FF2326110023248100232291003D
:1027900023202101130400006F004006931724003A
:1027A000370710F813070707B387E70003A90700E7
:1027B00093071000B3978700B70410F823A4F4041C
:1027C0003706B0F8B7E5F5059385051013055000F9
:1027D000EFF00FF523A404043706B0F8B7E5F505CC
:1027E0009385051013055000EFF08FF39305090052
:1027F00013050400EFF0DFD9130414009307B000B1
:10280000E3DE87F88320C100032481008324410094
:10281000032901001301010167800000130101FE7B
:10282000232E1100232C8100232A9100232821012B
:1028300023263101B70710F803A9070A1304000083
:102840006F008000130414009307B00063C687066E
:1028500093071000B397870033F72701E30407FEBF
:1028600013172400B70610F8938606073307D7001E
:1028700083290700B70410F823A4F4043706B0F83E
:10288000B7E5F5059385051013055000EFF04FE906
:1028900023A404043706B0F8B7E5F50593850510C1
:1028A00013055000EFF0CFE79385090013050400EE
:1028B000EFF01FCE6FF01FF98320C10103248101C7
:1028C00083244101032901018329C100130101026D
:1028D00067800000130300006F008008131E2300B0
:1028E000B307C50103A7070083A8070093D8880092
:1028F00003A80700135808011377F70F9317470031
:10290000B387E7409397170093F8F80F13974800A1
:10291000330717411317270033071741B387E70021
:102920001378F80F13171800330707011317270040
:1029300033070741B387E70013074006B3C7E70231
:1029400093F7F70F139707011398870033070701D1
:10295000338EC501B307F7002320FE0013031300D5
:10296000B307D602E36CF3F667800000130101FFA2
:1029700023261100EFF01F81370501F8EFF04FD942
:102980009365250093F5F50F370501F8EFF0CFD8E3
:102990009306100013061000930500003705C0F8D9
:1029A000EFF0DF8213062000930510003705C0F812
:1029B000EFF0DF808320C100130101016780000078
:1029C000130101FF2326110083A7418363860702B9
:1029D000130730006382E702130710006380E708E3
:1029E000930600013706900093052000370511F883
:1029F000EFF01F956F00800193060001370610006D
:102A000093052000370511F8EFF09F93930710000E
:102A10001307000093060000130600009305200032
:102A2000370511F8EFF05F9A130640009305200078
:102A3000370511F8EFF09F9E9306000037D611007E
:102A4000130606C493052000370511F8EFF09F9A8E
:102A50008320C1001301010167800000930600017B
:102A60003706500093052000370511F8EFF05F8D11
:102A70006FF0DFF9130101FF2326110023248100E9
:102A80006F00400493050400370501F8EFF04FBED6
:102A90006F00400A83C7D18293F7F70F6384070260
:102AA00083C6D1829387C197B387D700238007005D
:102AB000930610002386D182A38601826F008000D6
:102AC000A3860182370501F8EFF08FC41375052046
:102AD0006302050A370501F8EFF08FC39375D50F30
:102AE000370501F8EFF04FC3370501F8EFF00FBCE1
:102AF00013040500370501F8EFF08FC19365250039
:102B000093F5F50F370501F8EFF00FC19307D000EB
:102B10006306F4009307A000E316F4F69305D000D3
:102B2000370501F8EFF0CFB49305A000370501F8A1
:102B3000EFF00FB49307D000E30EF4F49307A00076
:102B4000E30AF4F483C7D18293F7F70F1307E00386
:102B5000E368F7F603C7D1829307170093F7F70FDF
:102B6000A386F1829387C197B387E700238087000C
:102B70006FF05FF583C7C18293F7F70F639A070081
:102B80008320C1000324810013010101678000003C
:102B90001384C1978347040093F7F70F238CF196B2
:102BA0001385D197EFE0CFCC23AAA19683471400D9
:102BB00093F7F70F2388F1966FF09FFC83C7C182CC
:102BC00093F7F70F638E073A130101FF23261100D5
:102BD0002386018283C78197938707FD93F6F70FBA
:102BE0001307C0016364D738939726003757000056
:102BF0001307870CB387E70083A7070067800700E8
:102C000083C7019793F7F70F13071006638CE70646
:102C100083C7019793F7F70F13072006638EE70624
:102C200083C7019793F7F70F130730066382E7080E
:102C300083C7019793F7F70F130740066386E708EA
:102C400083C7019793F7F70F13075006638AE708C6
:102C500083C7019793F7F70F13076006638EE708A2
:102C600083C7019793F7F70F130770066382E70A8C
:102C700083C5019737550000130505A3EFF04FFEFC
:102C80006F00000D23AA0182375500001305C59679
:102C9000EFF00FFD6F00C00B1307100023AAE182B5
:102CA0003755000013058598EFF08FFB6F00400A41
:102CB0001307200023AAE182375500001305459A27
:102CC000EFF00FFA6F00C0081307300023AAE1826B
:102CD000375500001305059CEFF08FF86F00400793
:102CE0001307400023AAE182375500001305C59D54
:102CF000EFF00FF76F00C0051307500023AAE18221
:102D0000375500001305859FEFF08FF56F004004E5
:102D10001307600023AAE18237550000130545A17F
:102D2000EFF00FF46F00C00283A74197939707015C
:102D300093D70701370710F82320F7003706B0F8BC
:102D4000B7E5F5059385051013055000EFF04F9D8D
:102D50008320C100130101016780000003A6419791
:102D60001316060113560601930510001305000003
:102D7000EFF00FCE6FF0DFFD03A6419713160601AB
:102D8000135606019305200013050000EFF04FCC09
:102D90006FF01FFC03A64197131606011356060198
:102DA0009305300013050000EFF08FCA6FF05FFA53
:102DB00003A741971317070113570701B70710F827
:102DC00023A0E7023706B0F8B7E5F50593850510AF
:102DD00013055000EFF0CF946FF09FF703A74197D2
:102DE0001317070113570701B70710F823A2E702CB
:102DF0003706B0F8B7E5F5059385051013055000C3
:102E0000EFF00F926FF0DFF403A74197131707015C
:102E100013570701B70710F823A4E7023706B0F8E5
:102E2000B7E5F5059385051013055000EFF04F8FBA
:102E30006FF01FF203A741971317070113570701FC
:102E4000B70710F823A6E7023706B0F8B7E5F5058F
:102E50009385051013055000EFF08F8C6FF05FEF36
:102E600003A741971317070113570701B70710F876
:102E700023A8E7023706B0F8B7E5F50593850510F6
:102E800013055000EFF0CF896FF09FEC03A7419737
:102E90001317070113570701B70710F823AAE70212
:102EA0003706B0F8B7E5F505938505101305500012
:102EB000EFF00F876FF0DFE903A7419713170701C2
:102EC00013570701B70710F823ACE7023706B0F82D
:102ED000B7E5F5059385051013055000EFF04F8415
:102EE0006FF01FE703A74197131707011357070157
:102EF000B70710F823AEE7023706B0F8B7E5F505D7
:102F00009385051013055000EFF08F816FF05FE49B
:102F100003A741971317070113570701B70710F8C5
:102F200023A0E7043706B0F8B7E5F505938505104B
:102F300013055000EFE0DFFE6FF09FE103A741971C
:102F400013773700B70710F823A2E7043706B0F865
:102F5000B7E5F5059385051013055000EFE05FFC1C
:102F60006FF01FDFEFF0DF816FF09FDE83C5819789
:102F700037550000130585A4EFF08FCE6FF05FDDAD
:102F800067800000130101FF232611002324810024
:102F90006F00C001EFF01FAEEFF05FC21306040038
:102FA000930500003705C0F8EFF0CFA893050000A7
:102FB0003705C0F8EFF04FA613040500630E0502B5
:102FC00093071000E308F4FC930760006312F40217
:102FD00083A70183E38407FC93052000370511F8DC
:102FE000EFF04FC5E31C05FAEFF09F9D6FF01FFB5C
:102FF000EFE01FC16FF09FFA8320C100032481001E
:103000001301010167800000130101FF2326110055
:103010002324810037540000130504AAEFF04FC4A5
:1030200037550000130545AFEFF08FC3130504AA11
:10303000EFF00FC337550000130505B3EFF04FC293
:1030400037550000130545B8EFF08FC13755000024
:10305000130585BDEFF0CFC0375500001305C5C27D
:10306000EFF00FC037550000130505C8EFF04FBF54
:1030700037550000130545CDEFF08FBE37550000E2
:10308000130585D2EFF0CFBD375500001305C5D726
:10309000EFF00FBD37550000130545DDEFF04FBCD5
:1030A0008320C10003248100130101016780000017
:1030B0000325050413751500678000001307050438
:1030C000930700212320F5048327070093F70701C6
:1030D000E39C07FE67800000130101FF2326110017
:1030E000232481001304050013050400EFF05FFCA6
:1030F000E31C05FE8320C1000324810013010101AC
:1031000067800000130101FF23261100130700420E
:103110002320E504EFF05FFC8320C10013010101CF
:10312000678000008327450093F70710E39C07FEA4
:1031300067800000130101FF2326110013071030E0
:103140002322E500EFF01FFE8320C10013010101DF
:10315000678000000325C5001375F50F13351500B2
:1031600067800000130101FE232E1100232C810033
:10317000232A91002328210123263101130405006D
:103180009384050013090600EFF05FF3B717000002
:10319000938707B22320F40013050400EFF09FF992
:1031A00013050400EFF01FFBEFE01FC193D784006D
:1031B000B7190000938909B0B3E737012320F40061
:1031C00013050400EFF01FF713050400EFF09FF85C
:1031D000EFE09FBE93F4F40FB3E434012320940096
:1031E00013050400EFF01FF513050400EFF09FF640
:1031F000EFE09FBC3369390123202401130504004B
:10320000EFF05FF313050400EFF0DFF4EFE0DFBA57
:1032100013050400EFF01FEF8320C1010324810197
:1032200083244101032901018329C1001301010203
:1032300067800000130101FF232611002324810071
:103240001304050013065000B73500009385B50E32
:10325000EFF05FF11306C000B73500009385B50E9F
:1032600013050400EFF01FF01306F00FB735000050
:103270009385A50013050400EFF0DFEE1306F00FB1
:10328000B73500009385B50013050400EFF09FEDFE
:1032900013065000B73500009385B50E13050400E2
:1032A000EFF05FEC13069000B73500009385B50E84
:1032B00013050400EFF01FEB8320C10003248100FD
:1032C0001301010167800000130101FF2326110093
:1032D00023248100232291002320210113040500CF
:1032E000138905009304060013D685009305C016C4
:1032F000EFF05FE71376F90F9305D016130504007E
:10330000EFF05FE613D684009305E0161305040082
:10331000EFF05FE513F6F40F9305F01613050400C4
:10332000EFF05FE48320C100032481008324410087
:10333000032901001301010167800000130101FE50
:10334000232E1100232C8100232A91002328210100
:10335000232631012324410113040500138A0500AB
:1033600093090600138906009304070013D685000D
:1033700093054016EFF01FDF1376FA0F93055016F2
:1033800013050400EFF01FDE13D6890093056016C5
:1033900013050400EFF01FDD13F6F90F9305701607
:1033A00013050400EFF01FDC135689009305801607
:1033B00013050400EFF01FDB1376F90F9305901649
:1033C00013050400EFF01FDA13D684009305A0164E
:1033D00013050400EFF01FD913F6F40F9305B01690
:1033E00013050400EFF01FD88320C10103248101DD
:1033F00083244101032901018329C100032A81009B
:103400001301010267800000130101FF2326110050
:103410002324810023229100930405001304060055
:103420009307200063F4B700930530009307200052
:1034300063F48700130430001386050093054017DA
:1034400013850400EFF01FD21306040093055017F4
:1034500013850400EFF01FD18320C10003248100F5
:10346000832441001301010167800000130101FF63
:103470002326110023248100232291001304050038
:10348000930406001386050093057015EFF09FCD99
:1034900013D684001376F6009305801513050400F7
:1034A000EFF05FCC13F6F40F9305901513050400AD
:1034B000EFF05FCB8320C10003248100832441000F
:1034C0001301010167800000130101FF2326110091
:1034D0002324810013040500130600009305001047
:1034E000EFF05FC813050400EFF0DFD413061000FF
:1034F0009305401113050400EFF0DFC6130600002A
:103500009305801213050400EFF0DFC51306800158
:103510009305A01213050400EFF0DFC413060000AA
:103520009305B01213050400EFF0DFC3130640004B
:103530009305001613050400EFF0DFC21306900593
:103540009305101613050400EFF0DFC11306D00039
:103550009305201613050400EFF0DFC01306800763
:103560009305301613050400EFF0DFBF1307B06EAC
:103570009306402B37160000130676A29305802A87
:1035800013050400EFF09FDB1306804393050078DA
:1035900013050400EFF05FD3130610009305001726
:1035A00013050400EFF01FBC13061000930510175D
:1035B00013050400EFF01FBB130600009305000085
:1035C00013050400EFF05FE41306A0009305C01894
:1035D00013050400EFF01FB91306A0009305D018DF
:1035E00013050400EFF01FB81306500093051030C8
:1035F00013050400EFF01FB71306100093053030D9
:1036000013050400EFF01FB6130630009305403099
:1036100013050400EFF01FB513063000930550307A
:1036200013050400EFF01FB413060000930560308B
:1036300013050400EFF01FB31306900393057030D9
:1036400013050400EFF01FB21306A000930590309D
:1036500013050400EFF01FB1130610009305B030FE
:1036600013050400EFF01FB0130600009305C030EF
:1036700013050400EFF01FAF130620079305D030A9
:1036800013050400EFF01FAE1306A0009305903061
:1036900013050400EFF01FAD130610009305B030C2
:1036A00013050400EFF01FAC130600009305C030B3
:1036B00013050400EFF01FAB130620079305D0306D
:1036C00013050400EFF01FAA130610009305001065
:1036D00013050400EFF01FA9130600209305900BBB
:1036E00013050400EFF09FD81306D00093052016B1
:1036F00013050400EFF01FA713068007930530168B
:1037000013050400EFF01FA61306600093050016D2
:1037100013050400EFF01FA51306300E93051016D5
:1037200013050400EFF01FA4130640009305A01535
:1037300013050400EFF01FA3130640059305B01511
:1037400013050400EFF01FA21306000093052017D5
:1037500013050400EFF01FA18320C10003248100A2
:10376000130101016780000013070504930700217E
:103770002320F5048327070093F70701E39C07FE46
:10378000678000008327450093F70710E39C07FE3E
:1037900067800000130101FF23261100130710307A
:1037A0002322E500EFF01FFE8320C1001301010179
:1037B000678000000325C5001375F50F133515004C
:1037C0006780000003254500135505011375F50FAB
:1037D00067800000130101FF2326110023248100CC
:1037E00023229100130405009384050013050400AF
:1037F000EFF05FFDE30C05FE232094008320C10061
:10380000032481008324410013010101678000002B
:10381000130101FF2326110093050500370501F868
:10382000EFF05FFB8320C1001301010167800000FE
:10383000130101FF23261100232481001304050036
:103840006F00C00013041400EFF09FFC0345040058
:10385000E31A05FE8320C100032481001301010146
:1038600067800000130101FF23261100232481003B
:1038700023229100930405001304C0016F0040024D
:1038800033D784001377F700B747000093870751B9
:10389000B387E70003C50700EFF09FF71304C4FFE9
:1038A000E35004FE8320C1000324810083244100EF
:1038B0001301010167800000130101FF232611009D
:1038C0002324810023229100930405001304C001E6
:1038D0006F00400233D784001377F700B74700002A
:1038E00093874752B387E70003C50700EFF05FF205
:1038F0001304C4FFE35004FE8320C10003248100AD
:10390000832441001301010167800000130101FFBE
:10391000232611001375F50FEFF09FEF8320C100F0
:103920001301010167800000130101FF232611002C
:10393000EFF01FF08320C100130101016780000038
:10394000130101FD23261102232481022322910267
:103950009304050063460500130401006F00C002D4
:103960001305D002EFF09FFAB30490406FF0DFFE32
:103970001307A000B3E7E402938707032300F400D2
:10398000B3C4E40213041400E39404FE930701009B
:10399000E300F4FE93070100630AF4001304F4FF4C
:1039A00003450400EFF09FF66FF0DFFE8320C102B5
:1039B0000324810283244102130101036780000074
:1039C000130101FF23261100130700009307700065
:1039D00063C0E70293162700930700FFB397D70051
:1039E000B377F50063860700130717006FF01FFE1B
:1039F000EFF09FEC8320C1001301010167800000FC
:103A0000130101FF23261100130700009307700024
:103A100063C0E70293162700930700FFB397D70010
:103A2000B377F50063860700130717006FF01FFEDA
:103A3000EFF05FE38320C100130101016780000004
:103A4000130101FF2326110023248100232291006A
:103A50001304050093840500EFF01FD1B717000091
:103A6000938707B0B3E4F400232094001305040007
:103A7000EFF05FD213050400EFF0DFD38320C10025
:103A800003248100832441001301010167800000A9
:103A9000130101FC232E1100232C8100232A910005
:103AA000930405002322B1022324C1022326D1025C
:103AB0002328E102232AF102232C0103232E1103E0
:103AC000930741022326F100130400006F00C00198
:103AD0008327C100138747002326E10003A50700C1
:103AE000EFF0DFE213041400B387840003C507007E
:103AF000630E050A93075002630EF506EFF01FE10F
:103B00006FF05FFE8327C100138747002326E10083
:103B100003A50700EFF05FE16FF0DFFC8327C10032
:103B2000138747002326E10003A50700EFF05FE1BC
:103B30006FF05FFB8327C100138747002326E10056
:103B400003A50700EFF0DFEB6FF0DFF98327C1007B
:103B5000138747002326E10003A50700EFF05FE687
:103B60006FF05FF83745000013058553EFF0DFDB9A
:103B70006FF05FF713041400B387840083C7070056
:103B8000E38207F6938787FA93F6F70F130700028D
:103B9000E362D7FE93972600375700001307C71339
:103BA000B387E70083A70700678007008320C10170
:103BB0000324810183244101130101046780000073
:103BC000130101FE232E1100232C8100232A9100D2
:103BD00023282101232631011309050093840500C0
:103BE00013850500EFE04FA21304000093071000B7
:103BF00063E8870AB75700001317240033078700CC
:103C0000131727009387071CB387E70083C90700B2
:103C10009385090013850400EFF09FE293071000DD
:103C20006306F500130414006FF05FFC23244101C8
:103C3000375A000093172400B38787009397270013
:103C4000130A0A1C330AFA0093D6190003268A00C5
:103C50009305090037550000130505EEEFF05FE30B
:103C60008327CA006386070013850400E7800700E6
:103C7000B7570000131724003307870013172700D6
:103C80009387071CB387E70083A7070163800704B6
:103C900013850400E7800700032A81006F004001BC
:103CA0009305090037550000130585F0EFF05FDE3E
:103CB0008320C101032481018324410103290101DF
:103CC0008329C1001301010267800000032A8100DB
:103CD0006FF01FFE130101FF23261100930505005D
:103CE00013050000EFF0DFED8320C1001301010197
:103CF0006780000003254500135505011375F50F76
:103D000067800000130101FF232611002324810096
:103D10002322910013040500938405001305040079
:103D2000EFF05FFDE30C05FE232094008320C1002B
:103D300003248100832441001301010167800000F6
:103D4000130101FF23261100232481002322910067
:103D500093040500138405006F0000011304140090
:103D600013850400EFF01FFA83450400E39805FE75
:103D70008320C10003248100832441001301010139
:103D80006780000003250504137515006780000097
:103D900013070504930700212320F5048327070058
:103DA00093F70701E39C07FE67800000130101FF02
:103DB00023261100232481001304050013050400A9
:103DC000EFF05FFCE31C05FE8320C10003248100AB
:103DD0001301010167800000130101FF2326110078
:103DE000130700422320E504EFF05FFC8320C100AD
:103DF00013010101678000008327450093F7071036
:103E0000E39C07FE67800000130101FF23261100D9
:103E1000130710302322E500EFF01FFE8320C100BE
:103E200013010101678000000325C5001375F50F1C
:103E30001335150067800000130101FE232E1100C9
:103E4000232C8100232A91002328210123263101DC
:103E5000130405009384050013090600EFF05FF3D7
:103E6000B7170000938747B32320F400130504001D
:103E7000EFF09FF913050400EFF01FFBEFD0DFF325
:103E800093D78400B7190000938909B0B3E73701CD
:103E90002320F40013050400EFF01FF713050400BE
:103EA000EFF09FF8EFD05FF193F4F40FB3E4340137
:103EB0002320940013050400EFF01FF51305040000
:103EC000EFF09FF6EFD05FEF336939012320240133
:103ED00013050400EFF05FF313050400EFF0DFF4C7
:103EE000EFD09FED13050400EFF01FEF8320C10119
:103EF0000324810183244101032901018329C10095
:103F00001301010267800000130101FF2326110045
:103F10001306100093050010EFF01FF28320C1007C
:103F20001301010167800000130101FF2326110026
:103F30001306000093050010EFF01FF08320C1006E
:103F40001301010167800000130101FF2326110006
:103F50002324810023229100930405001304000010
:103F60006F008002B757000013172400938707657E
:103F7000B387E70003C6270083D507001385040035
:103F8000EFF09FEB130414009307F002E3FC87FCAF
:103F90008320C10003248100832441001301010117
:103FA00067800000130101FF2326110023229100E6
:103FB0009304050063860508930710006382F50CDF
:103FC000930720006396F506232481001304000064
:103FD0009307E00563EC870AB75700001317240026
:103FE0009387C71FB387E70003C6270083D5070061
:103FF00013850400EFF05FE4130414006FF05FFD1D
:10400000B7570000131724009387474EB387E70084
:1040100003C6270083D5070013850400EFF0DFE116
:10402000130414009307A005E3FC87FC032481001C
:104030008320C10083244100130101016780000037
:1040400023248100130400006FF0DFFDB757000048
:104050001317240093878737B387E70003C6270029
:1040600083D5070013850400EFF01FDD130414004F
:104070009307A005E3FC87FC032481006FF05FFB3E
:1040800023248100130400006FF09FFE03248100AD
:104090006FF01FFA130101FF232611002324810072
:1040A0002322910093040500130400006F004002D6
:1040B0001317240093878181B387E70003C6270085
:1040C00083D5070013850400EFF01FD713041400F5
:1040D00093071000E3FE87FC8320C10003248100C6
:1040E000832441001301010167800000130101FFD7
:1040F0002326110023248100130405001306000069
:10410000B7C5000093858542EFF01FD3130640002A
:10411000B7C500009385954213050400EFF0DFD189
:104120008320C10003248100130101016780000086
:10413000130101FE232E1100232C8100232A91005C
:10414000232821012326310193090500930400004F
:104150006F00400613990401135909019307900059
:10416000B3E7F402375400001304841E3304F40050
:10417000B7850000938505B1B305B9000346040077
:104180009395050193D5050113850900EFF0DFCA6A
:10419000B7870000938707C0B305F9000346940072
:1041A0009395050193D5050113850900EFF0DFC84C
:1041B0009384140093075003E3DE97F88320C10132
:1041C0000324810183244101032901018329C100C2
:1041D0001301010267800000130101FF2326110073
:1041E0002324810013040500EFF09FBAB7170000E5
:1041F000938787B12320F40013050400EFF0DFC09C
:1042000013050400EFF05FC2EFD01FBBB71700002B
:10421000938727B02320F40013050400EFF0DFBEDE
:1042200013050400EFF05FC0EFD01FB9B71700000F
:10423000938707B02320F40013050400EFF0DFBCE0
:1042400013050400EFF05FB98320C100032481004F
:104250001301010167800000130101FF23261100F3
:104260002324810013040500EFF09FB2B71700006C
:10427000938787B12320F40013050400EFF0DFB823
:1042800013050400EFF05FBAEFD01FB3B7170000BB
:10429000938727B02320F40013050400EFF0DFB666
:1042A00013050400EFF05FB8EFD01FB1B71700009F
:1042B000938717B02320F40013050400EFF0DFB458
:1042C00013050400EFF05FB18320C10003248100D7
:1042D0001301010167800000130101FE232E11006C
:1042E000232C8100232A9100232821012326310138
:1042F00013040500938405009307E03F63F4B700BF
:104300009304F03F13050400EFF09FA8B7190000D5
:10431000938989B12320340113050400EFF0DFAE47
:1043200013050400EFF05FB0EFD01FA9B71700002E
:10433000938737B02320F40013050400EFF0DFACBF
:1043400013050400EFF05FAEEFD01FA793D78400F2
:1043500093F7370037190000130909B0B3E72701B5
:104360002320F40013050400EFF01FAA1305040036
:10437000EFF09FABEFD05FA413050400EFF0DFA5D3
:1043800013050400EFF0DFA023203401130504001F
:10439000EFF09FA713050400EFF01FA9EFD0DFA1F6
:1043A000B7170000938747B02320F40013050400DB
:1043B000EFF09FA513050400EFF01FA7EFD0DF9FDC
:1043C00093F4F40FB3E424012320940013050400B4
:1043D000EFF09FA313050400EFF01FA5EFD0DF9DC2
:1043E00013050400EFF05F9F8320C10103248101C6
:1043F00083244101032901018329C1001301010222
:1044000067800000130101FF23261100232481008F
:1044100013040500EFF05FB113050400EFF0DFB205
:1044200013050400EFF0DFD093051000130504001E
:10443000EFF05FB713050400EFF0DFC513050400CC
:10444000EFF0DFCA13050400EFF01FD99305C02B6E
:1044500013050400EFF05FE813050400EFF0DFDF61
:10446000B7550000938585F4370501F8EFF05F8DAF
:104470008320C10003248100130101016780000033
:10448000130101FC23201100232251002324610089
:10449000232671002328A100232AB100232CC10068
:1044A000232ED1002320E1022322F1022324010341
:1044B000232611032328C103232AD103232CE1033C
:1044C000232EF103EFD08FFC8320010083224100D3
:1044D000032381008323C1000325010183254101BA
:1044E000032681018326C10103270102832741029C
:1044F000032881028328C102032E0103832E410376
:10450000032F8103832FC1031301010473002030A3
:1045100030313233343536373839414243444546F9
:1045200000000000303132333435363738396162BB
:1045300063646566000000003C466C6F6174696EE0
:104540006720706F696E74207072696E74696E672F
:10455000206E6F7420656E61626C652E20506C65F4
:1045600061736520456E61626C65206974206174B9
:10457000206273702E682066697273742E2E2E3E30
:10458000000000000A2A2A2A204352415348202AC8
:104590002A2A0A00417373657274206661696C751A
:1045A00072650A00544F54414C20495350206D69A4
:1045B0006E696D756D206C6174656E63793A202546
:1045C0006420636C6F636B206379636C65730A0DA1
:1045D00000000000544F54414C20495350206D6955
:1045E0006E696D756D206C6174656E63793A204FEC
:1045F000564552464C4F570A0D000000424C43208E
:104600006D696E696D756D206C6174656E63793A64
:1046100020256420636C6F636B206379636C657322
:104620000A0D0000424C43206D696E696D756D2066
:104630006C6174656E63793A204F564552464C4F13
:10464000570A0D00434F4C4F5552204741494E20C9
:104650006D696E696D756D206C6174656E63793A14
:1046600020256420636C6F636B206379636C6573D2
:104670000A0D0000434F4C4F5552204741494E20F0
:104680006D696E696D756D206C6174656E63793AE4
:10469000204F564552464C4F570A0D0044454D4F4A
:1046A00053414943206D696E696D756D206C61746D
:1046B000656E63793A20256420636C6F636B2063B9
:1046C00079636C65730A0D0044454D4F534149436E
:1046D000206D696E696D756D206C6174656E6379AE
:1046E0003A204F564552464C4F570A0D00000000E5
:1046F00043434D206D696E696D756D206C61746505
:104700006E63793A20256420636C6F636B20637954
:10471000636C65730A0D000043434D206D696E693B
:104720006D756D206C6174656E63793A204F5645E6
:1047300052464C4F570A0D0047414D4D41206D697F
:104740006E696D756D206C6174656E63793A2025B4
:104750006420636C6F636B206379636C65730A0D0F
:104760000000000047414D4D41206D696E696D7537
:104770006D206C6174656E63793A204F56455246E0
:104780004C4F570A0D000000544F54414C204953E0
:1047900050206D6178696D756D206C6174656E6314
:1047A000793A20256420636C6F636B206379636CB6
:1047B00065730A0D00000000544F54414C204953CA
:1047C00050206D6178696D756D206C6174656E63E4
:1047D000793A204F564552464C4F570A0D0000007B
:1047E000424C43206D6178696D756D206C61746514
:1047F0006E63793A20256420636C6F636B20637964
:10480000636C65730A0D0000424C43206D6178694A
:104810006D756D206C6174656E63793A204F5645F5
:1048200052464C4F570A0D00434F4C4F55522047AC
:1048300041494E206D6178696D756D206C617465BC
:104840006E63793A20256420636C6F636B20637913
:10485000636C65730A0D0000434F4C4F555220475F
:1048600041494E206D6178696D756D206C6174658C
:104870006E63793A204F564552464C4F570A0D0009
:1048800044454D4F53414943206D6178696D756DC5
:10489000206C6174656E63793A20256420636C6FC7
:1048A000636B206379636C65730A0D0044454D4F5B
:1048B00053414943206D6178696D756D206C617459
:1048C000656E63793A204F564552464C4F570A0D54
:1048D0000000000043434D206D6178696D756D20C7
:1048E0006C6174656E63793A20256420636C6F6334
:1048F0006B206379636C65730A0D000043434D20A0
:104900006D6178696D756D206C6174656E63793A5F
:10491000204F564552464C4F570A0D0047414D4DCA
:1049200041206D6178696D756D206C6174656E6391
:10493000793A20256420636C6F636B206379636C24
:1049400065730A0D0000000047414D4D41206D6127
:1049500078696D756D206C6174656E63793A204F6E
:10496000564552464C4F570A0D00000053656C6582
:10497000637465642044656D6F204D6F64653A20F3
:1049800044610A0D0000000053656C656374656442
:104990002044656D6F204D6F64653A2044620A0DB6
:1049A0000000000053656C65637465642044656DA8
:1049B0006F204D6F64653A2044630A0D00000000CB
:1049C00053656C65637465642044656D6F204D6F3D
:1049D00064653A2044640A0D0000000053656C656C
:1049E000637465642044656D6F204D6F64653A2083
:1049F00044650A0D0000000053656C6563746564CE
:104A00002044656D6F204D6F64653A2044660A0D41
:104A10000000000053656C65637465642044656D37
:104A20006F204D6F64653A2044670A0D0000000056
:104A3000496E76616C69642044656D6F204D6F64CA
:104A4000653A2025630A0D00556E6B6E6F776E20F8
:104A5000636F6D6D616E643A202563202864656D17
:104A60006F206D6F6465733A20442B612D672C2095
:104A70006761696E733A20302D392F412F422F43E1
:104A80002F452B76616C75652C204C3A206C617437
:104A9000656E6379207265706F7274290A0D00006B
:104AA0003D3D3D3D3D3D3D3D3D3D3D3D3D3D3D3D36
:104AB0003D3D3D3D3D3D3D3D3D3D3D3D3D3D3D3D26
:104AC0003D3D3D3D3D3D3D3D3D3D3D3D3D3D3D3D16
:104AD0003D3D3D3D3D3D3D3D3D3D3D3D3D3D3D3D06
:104AE0003D3D3D3D3D3D3D3D3D3D3D3D3D3D3D3DF6
:104AF000200A0D00202020202020202020202020FF
:104B00002020202020202020495350204578616D0E
:104B1000706C652044657369676E205363656E61D0
:104B200072696F2053656C656374696F6E0A0D005E
:104B300027446127203A2043616D657261204361FB
:104B40007074757265202B2048444D492044697368
:104B5000706C61792020202020202020202020201F
:104B60002020202020202020202020202020202045
:104B70002020202020202020202020202020202035
:104B8000200A0D0027446227203A2043616D657298
:104B9000612043617074757265202B205247423248
:104BA000477261797363616C652028535729202B04
:104BB0002048444D4920446973706C61792020205D
:104BC00020202020202020202020202020202020E5
:104BD00020202020200A0D0027446327203A20436C
:104BE000616D6572612043617074757265202B2060
:104BF00052474232477261797363616C6520285372
:104C00005729202B20536F62656C20284857292094
:104C10002B2048444D4920446973706C61792020F1
:104C20002020202020202020200A0D002744642757
:104C3000203A2043616D6572612043617074757222
:104C400065202B2052474232477261797363616C51
:104C5000652028485729202B2048444D4920446985
:104C600073706C61792020202020202020202020BB
:104C7000202020202020202020202020200A0D007D
:104C800027446527203A2043616D657261204361A6
:104C90007074757265202B205247423247726179D9
:104CA0007363616C65202620536F62656C20284811
:104CB0005729202B2048444D4920446973706C616A
:104CC000792020202020202020202020202020208B
:104CD000200A0D0027446627203A2043616D657243
:104CE000612043617074757265202B2052474232F7
:104CF000477261797363616C65202620536F62652A
:104D00006C20262044696C6174696F6E20284857B6
:104D100029202B2048444D4920446973706C6179E7
:104D200020202020200A0D0027446727203A204316
:104D3000616D6572612043617074757265202B200E
:104D400052474232477261797363616C6520262055
:104D5000536F62656C20262045726F73696F6E20F9
:104D60002028485729202B2048444D492044697366
:104D7000706C617920202020200A0D00274C27200C
:104D8000203A205072696E7420495350206C61742F
:104D9000656E6379207265706F727420286D696E1C
:104DA0002F6D61782070657220706970656C696E16
:104DB0006520737461676529202020202020202031
:104DC00020202020202020202020202020202020E3
:104DD0000A0D00003D3D3D3D3D3D3D3D3D3D3D3DE0
:104DE0003D3D3D3D3D3D3D3D3D3D3D3D3D3D3D3DF3
:104DF0003D3D3D3D3D3D3D3D3D3D3D3D3D3D3D3DE3
:104E00003D3D3D3D3D3D3D3D3D3D3D3D3D3D3D3DD2
:104E10003D3D3D3D3D3D3D3D3D3D3D3D3D3D3D3DC2
:104E20003D3D3D3D200A0A0D000000000A0D486589
:104E30006C6C6F204566696E6978204564676520F3
:104E4000566973696F6E20536F4321210A0A0D0062
:104E5000496E69742043616D6572612E2E2E2E2E6F
:104E600000000000446F6E650A0D0000496E697411
:104E700020444D412E2E2E2E2E000000446F6E65D4
:104E80002021210A0A0D0000496E697469616C696C
:104E90007A65207465737420646973706C6179201D
:104EA000636F6E74656E742E2E0A0D000A5472695B
:104EB0006767657220646973706C617920444D4145
:104EC0002E2E0A0D0000000044656661756C74208A
:104ED00044656D6F204D6F64653A20610A0D0000D6
:104EE00043616D65726125642064657465637465F2
:104EF000643A2025732028616464723A2030782552
:104F0000303258290D0A000063616D256420646504
:104F10007465637465643A204E6F6E650A00000024
:104F2000506943616D2076322028494D583231391D
:104F300029000000506943616D2076332028494DD7
:104F400058373038290000000A0D446F6E65204341
:104F5000616D65726120496E69740000741B000008
:104F6000B41B0000B41B0000B41B0000B41B000005
:104F7000B41B0000B41B0000B41B0000B41B0000F5
:104F8000B41B0000B41B0000101B00005C1B0000E1
:104F9000B41B0000A41B0000B41B0000B41B0000E5
:104FA000B41B0000B41B0000B41B0000B41B0000C5
:104FB000B41B0000B41B0000B41B0000B41B0000B5
:104FC000B41B0000B41B0000441B0000B41B000015
:104FD000B41B0000B41B0000B41B00008C1B0000BD
:104FE000E4220000842200008C22000094220000B1
:104FF0009C220000A4220000AC220000B422000089
:10500000BC220000C4220000CC220000D4220000F8
:10501000DC22000004250000442500004425000097
:1050200044250000442500004425000044250000DC
:1050300044250000442500004425000044250000CC
:10504000A0240000EC2400004425000034250000CA
:1050500044250000442500004425000044250000AC
:10506000442500004425000044250000442500009C
:10507000442500004425000044250000442500008C
:10508000D4240000442500004425000044250000ED
:10509000442500001C250000C4250000F025000068
:1050A00014260000382600005C2600008026000040
:1050B000A4260000C8260000EC26000010270000EF
:1050C0003427000058270000282D00005C2D000028
:1050D000782D0000942D0000B02D0000DC2D000084
:1050E000082E0000342E0000602E00008C2E0000E0
:1050F0006C2F00006C2F00006C2F00006C2F000044
:105100006C2F00006C2F00006C2F0000B82E0000E8
:10511000E42E0000102F0000002C00003C2F0000A7
:105120006C2F00006C2F00006C2F00006C2F000013
:105130006C2F00006C2F0000642F0000343B000037
:10514000743B0000743B0000743B0000743B0000A3
:10515000743B0000743B0000743B0000743B000093
:10516000743B0000743B0000D03A00001C3B000080
:10517000743B0000643B0000743B0000743B000083
:10518000743B0000743B0000743B0000743B000063
:10519000743B0000743B0000743B0000743B000053
:1051A000743B0000743B0000043B0000743B0000B3
:1051B000743B0000743B0000743B00004C3B00005B
:1051C0002000000001000000204F0000C834000053
:1051D000000000003400000002000000344F000016
:1051E00004440000083F00004C4C4C463E38353526
:1051F00035353535383E464C4C4C000042031400E2
:1052000043036000400309004103B500440301006B
:1052100045038000460300004703D8004803100000
:1052200049037F004A0309004B03470020020100A5
:1052300022020200000900000109110002090A000F
:105240000032010001320100D5320000D6320000E8
:10525000DB320100DF3200000C3500000D350000AC
:1052600008040000090400000A0400000B04000008
:105270000C0407000D0480000E0404000F04380025
:105280004C0307004D0380004E0304004F03380019
:1052900001030500030302000503020006030000EA
:1052A0000703A2000B0302000D0304000E0301001C
:1052B0000F032C0010030100A03C0000A13C0000E3
:1052C000A43C0000A53C0000A63C0000A73C280030
:1052D000AA3C0000AB3C0000B83C0000B93C3000E8
:1052E000BA3C0000BB3C0000BC3C0000BD3C3200AE
:1052F000BE3C0000BF3C000002020B000302A40001
:10530000240202002502E900163105001731D200FF
:105310000402030005028400160203001702840041
:1053200018020100190200000E0201000F02000025
:1053300018310300193184001A3101001B310000BB
:105340001A3400001B3400001C3400001D3400001F
:105350001E3400001F3490002034000021346C0003
:1053600060330100613301006633090067330000D8
:10537000683305006933100042031D004303100029
:105380004003050041032000440301004503800061
:10539000460300004703D8004803100049037F007C
:1053A0004A0309004B03470020026200220200006A
:1053B0000009010001092200020908000032410031
:1053C00001324100D5320000D6320000DB3201004C
:1053D000DF3200000C3500000D350000080400002D
:1053E000090400000A0400000B0400000C0407007C
:1053F0000D0480000E0404000F0438004C03070065
:105400004D0380004E0304004F03380001030500E4
:1054100003030200050302000603000007037A00ED
:105420000B0302000D03040010030100A03C000068
:10543000A13C3C00A43C0000A53C3C00A63C000074
:10544000A73C0000AA3C0000AB3C0000B83C0000B8
:10545000B93C1C00BA3C0000BB3C0800BC3C00004E
:10546000BD3C1E00BE3C0000BF3C0A00020203001F
:1054700003021300240220002502F400163101006B
:105480001731F40004020300050284001602000034
:105490001702700018020100190200000E0201003C
:1054A0000F02000018310000193170001A3101009C
:1054B0001B3100001A3400001B3400001C340000B3
:1054C0001D3400001E3400001F3490002034000002
:1054D00021346C006633000067330000683300003D
:1054E0006933000042031D0043031000400306001F
:1054F0004103400044030000450300004603000050
:1055000047030000480311004903FF004A030A0053
:105510004B031F002002620022020100000900006C
:105520000109110002090A000032010001320100E4
:10553000D5320100D6320000DB320100DF3200003C
:105540000C3500000D3500000804000009040000BF
:105550000A0400000B0400000C0407000D04800086
:105560000E0404000F0438004C0307004D038000B4
:105570004E0304004F03380001030500030302003B
:10558000050302000603000007037C000B03020072
:105590000D03040010030100A03C0000A13C6400C6
:1055A000A43C0000A53C0000A63C0000A73C000075
:1055B000AA3C0000AB3C0000B83C0000B93C08002D
:1055C000BA3C0000BB3C0000BC3C0000BD3C3C00C1
:1055D000BE3C0000BF3C00000202030003022000AA
:1055E000240201002502F400163101001731F400F5
:1055F000040203000502200016020000170200004A
:1056000018020100190200000E0203000F02000040
:1056100018310000193100001A3101001B3100005F
:105620001A3400001B3400001C3400001D3400003C
:105630001E3401001F342000203400002134D80023
:1056400066330000673300006833000069330000F0
:10565000000100003601180037010000F03302009D
:10566000F133050062300000633012006830000042
:10567000693012006A3000006B3030007630000074
:10568000773030007830000079303000545E0C0004
:10569000446E0000B6B0010029E8000001F00800E7
:1056A00003F008000DF010000FF0100031F00800BA
:1056B00033F008003DF010003FF0100012010A0026
:1056C00013010A00140101008E0B01008F0B000072
:1056D000940B0100950B00000034010078340100A8
:1056E00079341C0091300100923000001934000020
:1056F000F1BC0200943001009530010062330000DB
:10570000633300006433000065330000380101009A
:105710000020202020202020202028282828282081
:105720002020202020202020202020202020202079
:1057300020881010101010101010101010101010E1
:1057400010040404040404040404041010101010D1
:10575000101041414141414101010101010101019B
:1057600001010101010101010101010110101010ED
:10577000101042424242424202020202020202026D
:1057800002020202020202020202020210101010C1
:1057900020000000000000000000000000000000E9
:1057A00000000000000000000000000000000000F9
:1057B00000000000000000000000000000000000E9
:1057C00000000000000000000000000000000000D9
:1057D00000000000000000000000000000000000C9
:1057E00000000000000000000000000000000000B9
:1057F00000000000000000000000000000000000A9
:105800000000000000000000000000000000000098
:1058100000000000000000000000000080590000AF
:10582000E8590000505A000000000000000000008D
:105830000000000000000000000000000000000068
:105840000000000000000000000000000000000058
:105850000000000000000000000000000000000048
:105860000000000000000000000000000000000038
:105870000000000000000000000000000000000028
:105880000000000000000000000000000000000018
:105890000000000000000000000000000000000008
:1058A00000000000000000000000000000000000F8
:1058B00001000000000000000E33CDAB34126DE695
:1058C000ECDE05000B0000000000000000000000FE
:1058D00000000000000000000000000000000000C8
:1058E00000000000000000000000000000000000B8
:1058F00000000000000000000000000000000000A8
:105900000000000000000000000000000000000097
:105910000000000000000000000000000000000087
:105920000000000000000000000000000000000077
:105930000000000000000000000000000000000067
:105940000000000000000000000000000000000057
:1059500000000000000000001858000000000000D7
:105960000E0301000F032C000000000000000000E7
:02597000000035
:0400000300001000E9
:00000001FF
