:1010000097510000938181E91761000013018185E8
:10101000173500001305C536973500009385453612
:10102000174600001306466A63FCC50083220500CC
:1010300023A055001305450093854500E3E8C5FE50
:1010400017450000130545689755000093850581F5
:101050006378B5002320050013054500E36CB5FE59
:10106000EF00C021EF00C02A6F0000006780000081
:101070001306A000930500006F00801E130101FFFE
:10108000232611009307400263E6D70C13071000D4
:101090009382060093870500974800009388983C48
:1010A000638AE60A232481002322910003C80700F3
:1010B000138307009387170033870801034707004E
:1010C00013778700E31407FE1307D002630EE814BA
:1010D0001307B002630EE808B70300809383F3FFA1
:1010E000930400006392060A130700036308E814E0
:1010F0009302A0009306A00033F4530213030000F0
:1011000093080000130E9000930F9001930EF0FFD0
:1011100033DF5302130708FD6378EE001307F8FB73
:1011200063E0EF0A130798FC6354D70A630ED301F8
:101130001303F0FF636A1F0163061F0D1303100002
:10114000B3885802B30817019387170003C8F7FF45
:101150006FF05FFCEF0000128320C1009307600175
:101160002320F50013050000130101016780000032
:10117000B703008003C807009383F3FF930723009E
:1011800093040000E38206F613070001E396E6F6F7
:101190001307000393020001E310E8F603C70700FA
:1011A000930880051377F70DE31817F503C81700A8
:1011B0009302000193872700930600016FF0DFF38D
:1011C0001307F8F963E6EF00130798FAE340D7F640
:1011D0001307F0FF630CE30263840400B3081041BB
:1011E00063060600631A03062320B6000324810069
:1011F0008320C100832441001385080013010101ED
:1012000067800000E342E4F46FF05FF3130720020D
:101210002320E50093880300E30A06FC9385F7FF8B
:10122000938803006FF05FFC03C80700B7030080DA
:1012300093072300930410006FF0DFEA03C7070051
:1012400093088005930280001377F70D93068000C2
:10125000E31417EB6FF09FF5938308006FF01FFC0A
:1012600093060600138605009305050003A501817A
:101270006FF0DFE003A5018167800000130101FF2B
:101280002324810023202101973700009387470FF3
:10129000173400001304C40E2326110023229100EA
:1012A00033898740638087021359294093040000E3
:1012B000832704009384140013044400E78007008C
:1012C000E3E824FF973700009387870B173400006B
:1012D0001304040B3389874013592940638E870018
:1012E0009304000083270400938414001304440033
:1012F000E7800700E3E824FF8320C1000324810086
:1013000083244100032901001301010167800000CB
:10131000130101FF2326110023248100375500000B
:101320001305C5BCEF10C00437550000130505BFF9
:10133000EF100004370410F8232204003706B0F839
:10134000B7E5F5059385051013054006EF00503D00
:10135000930720002322F4003706B0F8B7E5F5051F
:10136000938505103725000013050571EF00503BEC
:10137000375501F8EF20C07C930730002322F4009A
:1013800037550000130545C0EF00907E375500002B
:101390001305C5C0EF00D07DEF10C046EF00D007A9
:1013A000930600001306000093054000370511F86E
:1013B000EF00907A930600001306000093053000BA
:1013C000370511F8EF00507993060000130600006E
:1013D00093052000370511F8EF0010789306000000
:1013E0001306000093050000370511F8EF00D076D2
:1013F000375500001305C5C1EF00907723AA01827D
:1014000037550000130585C2EF00907613060000E3
:101410006F00001113072000635CC7006340F70AE8
:1014200013078021635CC7086F008000635CC708F6
:101430001307C0213307E6023307F700131727000D
:10144000B70610003387E6009306F00F2320D7007D
:101450006F0040051307C0213307E6023307F7008A
:1014600013172700B70610003387E600B706010000
:10147000938606F02320D7006F00C002130740199F
:10148000634CF7061307C0213307E6023307F70062
:1014900013172700B70610003387E6009306F00FF6
:1014A0002320D700938717001307B0216348F7065E
:1014B0001387D7FF93065021E3EEE6F4130780214C
:1014C000E346F7F613076008E356F7F81307D01062
:1014D000E346F7FA1307C0213307E6023307F700A4
:1014E00013172700B70610003387E600B706FF0082
:1014F0002320D7006FF01FFB1307C0213307E6023C
:101500003307F70013172700B70610003387E600EC
:10151000B706FF002320D7006FF0DFF81306160090
:101520009307B02163C6C700930700006FF0DFF791
:10153000375500001305C5C4EF0090639306000102
:101540003706100093052000370511F8EF005050C2
:101550009307100013070000930600001306000015
:1015600093052000370511F8EF00105713064000CF
:1015700093052000370511F8EF00505B930600003B
:1015800037D61100130606C493052000370511F85D
:10159000EF0050571307100023A8E1823715000011
:1015A00013058538EF009003375500001305C5C1BA
:1015B000EF00105CEF10D00C37550000130585C606
:1015C000EF00105B6F004010B70710F823A607006C
:1015D0006F0040119306C0211306C021B7055000CB
:1015E00037051000EF1080186F000018B70712F8C9
:1015F00023A2070093060001370610009305400060
:10160000370511F8EF00D0449307100013070000CE
:10161000930600001306000093054000370511F8FB
:10162000EF00904B83A74183130720006386E700F8
:10163000130740006398E7189306000037D611009F
:101640001306464B93054000370511F8EF00904B09
:1016500013070000930610001306000093053000E6
:10166000370511F8EF00D0439306000137069000CC
:1016700093053000370511F8EF0010409306000085
:1016800037D61100130606C493053000370511F84C
:10169000EF005047B70712F81307100023A4E70024
:1016A00023A4070093054000370511F8EF00904987
:1016B000E31A05FE93053000370511F8EF00904856
:1016C000E31205FE0F500000EF00905D03A7418379
:1016D00093072000E3FAE7EEB70710F813071000AE
:1016E00023A6E7001307000093061000130600006E
:1016F00093050000370511F8EF00903A93060001BA
:101700003706100093050000370511F8EF00D036BA
:101710009306000037D61100130606C49305000097
:10172000370511F8EF00103EB70710F81307100047
:1017300023A8E70023A80700B70710F823A4E700B1
:1017400023A4070093050000370511F8EF00903F30
:10175000E31A05FE0F50000083A741839387F7FF2C
:1017600013071000E378F7E683A7418313072000EF
:101770006386E70013073000E378F7F4B70712F841
:101780001307500023A0E70083A74183130720001D
:10179000E38EE7E413074000E38AE7E41307500011
:1017A000638AE700B70712F81307200023A2E700B7
:1017B0006FF05FE4B70712F81307100023A2E700E9
:1017C0006FF05FE39306000037E61100130686D240
:1017D00093054000370511F8EF00D0326FF05FE756
:1017E00093952500B385A50023A0C5006780000060
:1017F00093957500B385A5009357560093972700DE
:10180000B387F50037270000B387E7001307100000
:101810003316C700638A060003A707003366E60095
:1018200023A0C7006780000003A707001346F6FF48
:101830003376E60023A0C700678000009395C500BB
:10184000B385A500B7072000B385F50023A0C50028
:101850006780000003254500135505011375F50F3A
:1018600067800000130101FF23261100232481005B
:10187000232291001304050093840500130504003E
:10188000EFF05FFDE30C05FE232094008320C100F0
:1018900003248100832441001301010167800000BB
:1018A000130101FF2326110093050500370501F8F8
:1018B000EFF05FFB8320C10013010101678000008E
:1018C000130101FF232611002324810013040500C6
:1018D0006F00C00013041400EFF09FFC03450400E8
:1018E000E31A05FE8320C1000324810013010101D6
:1018F00067800000130101FF2326110023248100CB
:1019000023229100930405001304C0016F004002DC
:1019100033D784001377F700B74700009387073861
:10192000B387E70003C50700EFF09FF71304C4FF78
:10193000E35004FE8320C10003248100832441007E
:101940001301010167800000130101FF232611002C
:101950002324810023229100930405001304C00175
:101960006F00400233D784001377F700B7470000B9
:1019700093874739B387E70003C50700EFF05FF2AD
:101980001304C4FFE35004FE8320C100032481003C
:10199000832441001301010167800000130101FF4E
:1019A000232611001375F50FEFF09FEF8320C10080
:1019B0001301010167800000130101FF23261100BC
:1019C000EFF01FF08320C1001301010167800000C8
:1019D000130101FD232611022324810223229102F7
:1019E0009304050063460500130401006F00C00264
:1019F0001305D002EFF09FFAB30490406FF0DFFEC2
:101A00001307A000B3E7E402938707032300F40061
:101A1000B3C4E40213041400E39404FE930701002A
:101A2000E300F4FE93070100630AF4001304F4FFDB
:101A300003450400EFF09FF66FF0DFFE8320C10244
:101A40000324810283244102130101036780000003
:101A5000130101FF232611001307000093077000F4
:101A600063C0E70293162700930700FFB397D700E0
:101A7000B377F50063860700130717006FF01FFEAA
:101A8000EFF09FEC8320C10013010101678000008B
:101A9000130101FF232611001307000093077000B4
:101AA00063C0E70293162700930700FFB397D700A0
:101AB000B377F50063860700130717006FF01FFE6A
:101AC000EFF05FE38320C100130101016780000094
:101AD000130101FC232E1100232C8100232A9100E5
:101AE000930405002322B1022324C1022326D1023C
:101AF0002328E102232AF102232C0103232E1103C0
:101B0000930741022326F100130400006F00C00177
:101B10008327C100138747002326E10003A50700A0
:101B2000EFF0DFE713041400B387840003C5070058
:101B3000630E050A93075002630EF506EFF01FE6E9
:101B40006FF05FFE8327C100138747002326E10063
:101B500003A50700EFF05FE66FF0DFFC8327C1000D
:101B6000138747002326E10003A50700EFF05FE697
:101B70006FF05FFB8327C100138747002326E10036
:101B800003A50700EFF0DFF06FF0DFF98327C10056
:101B9000138747002326E10003A50700EFF05FEB62
:101BA0006FF05FF8374500001305853AEFF0DFE08E
:101BB0006FF05FF713041400B387840083C7070036
:101BC000E38207F6938787FA93F6F70F130700026D
:101BD000E362D7FE93972600375700001307C7CF5D
:101BE000B387E70083A70700678007008320C10150
:101BF0000324810183244101130101046780000053
:101C0000130101FF23261100374500001305453F4E
:101C1000EFF01FEC6F000000130101FF23261100FD
:101C200013060000930500003705C0F8EFF01FC150
:101C30009306100013066000930500003705C0F8F6
:101C4000EFF01FBB13061000930560003705C0F8C6
:101C5000EFF01FB9B74700009387C72E7390573036
:101C6000B71700009387078073A04730F327003031
:101C70003727000013078780B3E7E700739007302A
:101C80008320C1001301010167800000130101FFDF
:101C900023261100F327203463D2070213F7F7003D
:101CA0009307B000631AF700EF1040158320C100BE
:101CB0001301010167800000EFF09FF4EFF05FF483
:101CC00003254500135505011375F50F67800000C6
:101CD000130101FF232611002324810023229100F8
:101CE000130405009384050013050400EFF05FFD65
:101CF000E30C05FE232094008320C100032481000F
:101D0000832441001301010167800000130101FFDA
:101D1000232611002324810023229100930405002F
:101D2000138405006F0000011304140013850400E0
:101D3000EFF01FFA83450400E39805FE8320C100FD
:101D40000324810083244100130101016780000006
:101D5000B7470F0093870724B3D5F502B7C7000034
:101D6000938787FF3306F60083270600B385A50215
:101D70003387F50083270600B307F740E3DC07FE4F
:101D80006780000083A705002324F50283A7450090
:101D90002326F50283A785002328F50283A7C50023
:101DA0002328F50483A70501232AF50483A7450109
:101DB000232CF504678000006304050067800000A1
:101DC000130101FF23261100B7450000938545400C
:101DD000370501F8EFF09FF36F000000130101FFDA
:101DE000232611003706B0F8B7E5F50593850510F1
:101DF0009307803E3305F502EFF09FF58320C10085
:101E00001301010167800000130101FD2326110267
:101E1000930730002324F100B78701009387076AF6
:101E20002326F100930720032328F1009307D0070E
:101E3000232AF100232CF1009307A00F232EF10099
:101E400093058100EFF01FF48320C1021301010309
:101E50006780000003254500135505011375F50F34
:101E60006780000003254500135585016780000049
:101E7000130101FF23261100232481002322910056
:101E8000130405009384050013050400EFF09FFC84
:101E9000E30C05FE232094008320C100032481006D
:101EA000832441001301010167800000130101FF39
:101EB00023261100232481001304050013050400C8
:101EC000EFF05FFAE30C05FE032504001375F50F30
:101ED0008320C100032481001301010167800000F9
:101EE00083A7C5002324F50083A705009387F7FF88
:101EF00003A7450013178700B3E7E70003A7850092
:101F000013170701B3E7E7002326F50067800000F9
:101F100003254500678000002322B500678000008C
:101F2000B7470F0093870724B3D5F502B7C7000062
:101F3000938787FF3306F60083270600B385A50243
:101F40003387F50083270600B307F740E3DC07FE7D
:101F500067800000130101FF23261100930505008F
:101F6000370501F8EFF0DFF08320C1001301010114
:101F700067800000130101FF232611002324810044
:101F8000130405006F00C00013041400EFF09FFC61
:101F900003450400E31A05FE8320C10003248100E9
:101FA0001301010167800000130101FF23261100C6
:101FB0002324810023229100930405001304C0010F
:101FC0006F00400233D784001377F700B747000053
:101FD00093870738B387E70003C50700EFF09FF743
:101FE0001304C4FFE35004FE8320C10003248100D6
:101FF000832441001301010167800000130101FFE8
:10200000232611002324810023229100930405003C
:102010001304C0016F00400233D784001377F70028
:10202000B747000093874739B387E70003C5070028
:10203000EFF05FF21304C4FFE35004FE8320C100FD
:102040000324810083244100130101016780000003
:10205000130101FF232611001375F50FEFF09FEF19
:102060008320C1001301010167800000130101FFFB
:1020700023261100EFF01FF08320C100130101019E
:1020800067800000130101FD232611022324810231
:102090002322910293040500634605001304010006
:1020A0006F00C0021305D002EFF09FFAB304904016
:1020B0006FF0DFFE1307A000B3E7E4029387070386
:1020C0002300F400B3C4E40213041400E39404FEF8
:1020D00093070100E300F4FE93070100630AF40094
:1020E0001304F4FF03450400EFF09FF66FF0DFFEEA
:1020F0008320C102032481028324410213010103CE
:1021000067800000130101FF232611001307000060
:102110009307700063C0E70293162700930700FF40
:10212000B397D700B377F50063860700130717004E
:102130006FF01FFEEFF09FEC8320C100130101013F
:1021400067800000130101FF232611001307000020
:102150009307700063C0E70293162700930700FF00
:10216000B397D700B377F50063860700130717000E
:102170006FF01FFEEFF05FE38320C1001301010148
:1021800067800000130101FE232E110093078000D9
:102190002320F10023220100232401009307B0062D
:1021A0002326F10093050100370501F8EFF05FD316
:1021B0008320C1011301010267800000939525006F
:1021C000B385A50023A0C500678000009395750026
:1021D000B385A5009357560093972700B387F50062
:1021E00037270000B387E700130710003316C70036
:1021F000638A060003A707003366E60023A0C70032
:102200006780000003A707001346F6FF3376E60059
:1022100023A0C700678000009395C500B385A50083
:10222000B707200093874700B385F50003A5050095
:10223000678000009395C500B385A500B70720000F
:1022400093874700B385F50023A0C5006780000091
:10225000939575003385A5002320C5009386F6FF6E
:10226000B71700001387F7FFB3F6E600B3E6F600F2
:102270002326D50067800000939575003385A5005F
:102280002328C5009386F6FFB71700001387F7FFD2
:10229000B3F6E600B3E6F600232ED5006780000013
:1022A000939575003385A5002324C500630E0700B0
:1022B000B7270000638E060037470000B3E7E7004A
:1022C0002326F50067800000930700006FF09FFE53
:1022D000130700006FF09FFE939575003385A500EE
:1022E00093968600B3E6C60013170701B3E6E6002F
:1022F000232CD50063840700B7270000232EF500A8
:1023000067800000939575003385A5001306F6FFDE
:102310002320C50263880600930730002326F502B8
:1023200067800000930710006FF05FFF93957500C2
:102330003385A5009307F0FF232AF5042328C5045D
:102340006780000093957500B385A50003A5C502BD
:10235000137515006780000093957500B385A5007F
:1023600093968600B3E6C60023A2D50467800000DA
:10237000130101FC232E1100232C8100232A91003C
:10238000930405002322B1022324C1022326D10293
:102390002328E102232AF102232C0103232E110317
:1023A000930741022326F100130400006F00C001CF
:1023B0008327C100138747002326E10003A50700F8
:1023C000EFF01FC913041400B387840003C507008E
:1023D000630E050A93075002630EF506EFF05FC720
:1023E0006FF05FFE8327C100138747002326E100BB
:1023F00003A50700EFF09FC76FF0DFFC8327C10044
:10240000138747002326E10003A50700EFF09FC7CD
:102410006FF05FFB8327C100138747002326E1008D
:1024200003A50700EFF01FD26FF0DFF98327C1008B
:10243000138747002326E10003A50700EFF09FCC98
:102440006FF05FF8374500001305853AEFF01FC2C3
:102450006FF05FF713041400B387840083C707008D
:10246000E38207F6938787FA93F6F70F13070002C4
:10247000E362D7FE9397260037570000130707D86B
:10248000B387E70083A70700678007008320C101A7
:1024900003248101832441011301010467800000AA
:1024A000130101FE232E1100232C8100232A910009
:1024B0002328210123263101B70710F883A4070A36
:1024C000130400006F00C001631809089385090018
:1024D0003745000013054541EFF09FE91304140050
:1024E0009307B00063C6872693071000B397870051
:1024F0003337F00033779700E30207FE370710F811
:102500002324F70493172400370710F8130707074D
:10251000B387E70083A9070093D9190083A70700B1
:1025200013F917003706B0F8B7E5F50593850510E0
:1025300013055000EFF0DF9E9307B000E3E087FA49
:102540009317240037570000130747E0B387E700CD
:1025500083A70700678007009385090037450000BF
:1025600013054544EFF0DFE06FF05FF7631C0900EF
:1025700093850900374500001305C546EFF05FDF7E
:102580006FF0DFF5938509003745000013054549D5
:10259000EFF01FDE6FF09FF4631C090093850900C4
:1025A000374500001305454BEFF09FDC6FF01FF33C
:1025B00093850900374500001305454EEFF05FDBBA
:1025C0006FF0DFF1631C09009385090037450000B7
:1025D0001305C550EFF0DFD96FF05FF09385090068
:1025E0003745000013058553EFF09FD86FF01FEFBC
:1025F000631C090093850900374500001305055643
:10260000EFF01FD76FF09FED93850900374500006D
:1026100013058558EFF0DFD56FF05FEC631C090000
:1026200093850900374500001305855AEFF05FD404
:102630006FF0DFEA93850900374500001305455D1B
:10264000EFF01FD36FF09FE9631C09009385090029
:10265000374500001305855FEFF09FD16FF01FE84D
:10266000938509003745000013058562EFF05FD0C0
:102670006FF0DFE6631C0900938509003745000011
:1026800013050565EFF0DFCE6FF05FE59385090078
:102690003745000013058567EFF09FCD6FF01FE40D
:1026A000631C0900938509003745000013058569FF
:1026B000EFF01FCC6FF09FE29385090037450000D3
:1026C0001305856CEFF0DFCA6FF05FE1631C090052
:1026D00093850900374500001305056FEFF05FC9CA
:1026E0006FF0DFDF93850900374500001305C571E2
:1026F000EFF01FC86FF09FDE631C0900938509008F
:102700003745000013054574EFF09FC66FF01FDDDD
:1027100093850900374500001305C576EFF05FC5C6
:102720006FF0DFDB631C090093850900374500006B
:102730001305C578EFF0DFC36FF05FDA938509000A
:10274000374500001305857BEFF09FC26FF01FD95E
:102750008320C10103248101832441010329010154
:102760008329C100130101026780000013030000E8
:102770006F008008131E2300B307C50103A70700DD
:1027800083A8070093D8880003A8070013580801FE
:102790001377F70F93174700B387E7409397170016
:1027A00093F8F80F139748003307174113172700C2
:1027B00033071741B387E7001378F80F1317180092
:1027C000330707011317270033070741B387E700D3
:1027D00013074006B3C7E70293F7F70F13970701F4
:1027E0001398870033070701338EC501B307F7003D
:1027F0002320FE0013031300B307D602E36CF3F6A5
:1028000067800000130101FF23261100EFF09F975E
:10281000370501F8EFF0CFEF9365250093F5F50F3D
:10282000370501F8EFF04FEF930610001306100084
:10283000930500003705C0F8EFF05F9913062000FC
:10284000930510003705C0F8EFF05F978320C100B3
:102850001301010167800000130101FF232611000D
:1028600083A7418363860702130730006382E70270
:10287000130710006380E7089306000137069000F5
:1028800093052000370511F8EFF09F9C6F00800141
:10289000930600013706100093052000370511F854
:1028A000EFF01F9B93071000130700009306000032
:1028B0001306000093052000370511F8EFF0DFA1A3
:1028C0001306400093052000370511F8EFF01FA60E
:1028D0009306000037D61100130606C493052000A6
:1028E000370511F8EFF01FA28320C1001301010189
:1028F0006780000093060001370650009305200012
:10290000370511F8EFF0DF946FF0DFF9130101FFE5
:1029100023261100232481006F00400383C7D18246
:1029200093F7F70F6384070283C6D1829387C19719
:10293000B387D70023800700930610002386D18237
:10294000A38601826F008000A3860182370501F80B
:10295000EFF00FDC13750520630E0506370501F84F
:10296000EFF00FDB9375D50F370501F8EFF0CFDAF5
:10297000370501F8EFF08FD313040500370501F890
:10298000EFF00FD99365250093F5F50F370501F8A2
:10299000EFF08FD89307D000E302F4F89307A0007C
:1029A000E30EF4F683C7D18293F7F70F1307E00322
:1029B000E36CF7F803C7D1829307170093F7F70F7B
:1029C000A386F1829387C197B387E70023808700AE
:1029D0006FF0DFF783C7C18293F7F70F639A0700A1
:1029E0008320C100032481001301010167800000DE
:1029F0001384C1978347040093F7F70F238CF19654
:102A00001385D197EFE0CFE623AAA1968347140060
:102A100093F7F70F2388F1966FF09FFC83C7C1826D
:102A200093F7F70F638A073C2386018283C7819758
:102A3000938707FD93F6F70F13075001636ED73A9C
:102A4000130101FF2326110093972600375700003A
:102A5000130747E3B387E70083A7070067800700F2
:102A600083C7019793F7F70F13071006638CE706E8
:102A700083C7019793F7F70F13072006638EE706C6
:102A800083C7019793F7F70F130730066382E708B0
:102A900083C7019793F7F70F130740066386E7088C
:102AA00083C7019793F7F70F13075006638AE70868
:102AB00083C7019793F7F70F13076006638EE70844
:102AC00083C7019793F7F70F130770066382E70A2E
:102AD00083C501973755000013054588EFF05F89DE
:102AE0006F00000D23AA0182374500001305C57D44
:102AF000EFF01F886F00C00B1307100023AAE182BC
:102B0000374500001305457FEFF09F866F00400AB0
:102B10001307200023AAE182375500001305C58062
:102B2000EFF01F856F00C0081307300023AAE18271
:102B30003755000013054582EFF09F836F00400773
:102B40001307400023AAE182375500001305C5830F
:102B5000EFF01F826F00C0051307500023AAE18227
:102B60003755000013054585EFF09F806F00400446
:102B70001307600023AAE182375500001305C586BC
:102B8000EFF00FFF6F00C00283A7419793970701F3
:102B900093D70701370710F82320F7003706B0F85E
:102BA000B7E5F5059385051013055000EFF04FB715
:102BB0008320C100130101016780000003A7419732
:102BC0001317070113570701B70710F823AAE700E7
:102BD0003706B0F8B7E5F5059385051013055000E5
:102BE000EFF00FB46FF0DFFC03A741971317070155
:102BF00013570701B70710F823ACE7003706B0F802
:102C0000B7E5F5059385051013055000EFF04FB1BA
:102C10006FF01FFA03A74197131707011357070116
:102C2000B70710F823AEE7003706B0F8B7E5F505AB
:102C30009385051013055000EFF08FAE6FF05FF72E
:102C400003A741971317070113570701B70710F898
:102C500023A0E7023706B0F8B7E5F5059385051020
:102C600013055000EFF0CFAB6FF09FF403A741972F
:102C70001317070113570701B70710F823A2E7023C
:102C80003706B0F8B7E5F505938505101305500034
:102C9000EFF00FA96FF0DFF103A7419713170701BA
:102CA00013570701B70710F823A4E7023706B0F857
:102CB000B7E5F5059385051013055000EFF04FA615
:102CC0006FF01FEF03A74197131707011357070171
:102CD000B70710F823A6E7023706B0F8B7E5F50501
:102CE0009385051013055000EFF08FA36FF05FEC94
:102CF00003A741971317070113570701B70710F8E8
:102D000023A8E7023706B0F8B7E5F5059385051067
:102D100013055000EFF0CFA06FF09FE903A7419794
:102D20001317070113570701B70710F823AAE70283
:102D30003706B0F8B7E5F505938505101305500083
:102D4000EFF00F9E6FF0DFE603A74197131707011F
:102D500013570701B70710F823ACE7023706B0F89E
:102D6000B7E5F5059385051013055000EFF04F9B6F
:102D70006FF01FE403A741971317070113570701CB
:102D8000B70710F823AEE7023706B0F8B7E5F50548
:102D90009385051013055000EFF08F986FF05FE1F9
:102DA00003A741971317070113570701B70710F837
:102DB00023A0E7043706B0F8B7E5F50593850510BD
:102DC00013055000EFF0CF956FF09FDE03A74197FA
:102DD0001317070113570701B70710F823A2E704D9
:102DE0003706B0F8B7E5F5059385051013055000D3
:102DF000EFF00F936FF0DFDB67800000130101FF3E
:102E000023261100232481006F00C001EFF01FB0C2
:102E1000EFF0DFC013060400930500003705C0F88B
:102E2000EFF04FC1930500003705C0F8EFF0CFBEBB
:102E300013040500630E050293071000E308F4FC79
:102E4000930760006312F40283A70183E38407FC05
:102E500093052000370511F8EFF0CFCEE31C05FAFB
:102E6000EFF09F9F6FF01FFBEFE09FD96FF09FFA8D
:102E70008320C10003248100130101016780000049
:102E8000130101FF23261100232481003754000081
:102E90001305C489EFF0CFCD375500001305058F1A
:102EA000EFF00FCD1305C489EFF08FCC375500003C
:102EB0001305C592EFF0CFCB3755000013050598E9
:102EC000EFF00FCB375500001305459DEFF04FCACB
:102ED00037550000130585A2EFF08FC93755000064
:102EE0001305C5A7EFF0CFC837550000130505AD92
:102EF000EFF00FC837550000130545B2EFF04FC78C
:102F000037550000130585B7EFF08FC68320C10049
:102F100003248100130101016780000003250504DB
:102F2000137515006780000013070504930700213F
:102F30002320F5048327070093F70701E39C07FE8E
:102F400067800000130101FF232611002324810064
:102F50001304050013050400EFF05FFCE31C05FEFD
:102F60008320C10003248100130101016780000058
:102F7000130101FF23261100130700422320E5045B
:102F8000EFF05FFC8320C1001301010167800000A6
:102F90008327450093F70710E39C07FE6780000036
:102FA000130101FF23261100130710302322E5002F
:102FB000EFF01FFE8320C1001301010167800000B4
:102FC0000325C5001375F50F133515006780000044
:102FD000130101FE232E1100232C8100232A9100CE
:102FE00023282101232631011304050093840500C1
:102FF00013090600EFF05FF3B7170000938707B2DD
:103000002320F40013050400EFF09FF913050400DA
:10301000EFF01FFBEFE05FDA93D78400B7190000F1
:10302000938909B0B3E737012320F40013050400A6
:10303000EFF01FF713050400EFF09FF8EFE0DFD784
:1030400093F4F40FB3E43401232094001305040037
:10305000EFF01FF513050400EFF09FF6EFE0DFD56A
:10306000336939012320240113050400EFF05FF3D5
:1030700013050400EFF0DFF4EFE01FD413050400A4
:10308000EFF01FEF8320C10103248101832441015C
:10309000032901018329C100130101026780000097
:1030A000130101FF232611002324810013040500CE
:1030B00013065000B73500009385B50EEFF05FF1B1
:1030C0001306C000B73500009385B50E1305040044
:1030D000EFF01FF01306F00FB73500009385A50041
:1030E00013050400EFF0DFEE1306F00FB735000014
:1030F0009385B50013050400EFF09FED1306500013
:10310000B73500009385B50E13050400EFF05FECB2
:1031100013069000B73500009385B50E1305040023
:10312000EFF01FEB8320C100032481001301010194
:1031300067800000130101FF232611002324810072
:103140002322910023202101130405001389050087
:103150009304060013D685009305C016EFF05FE7D1
:103160001376F90F9305D01613050400EFF05FE610
:1031700013D684009305E01613050400EFF05FE515
:1031800013F6F40F9305F01613050400EFF05FE457
:103190008320C1000324810083244100032901000E
:1031A0001301010167800000130101FE232E1100AD
:1031B000232C8100232A9100232821012326310179
:1031C0002324410113040500138A05009309060016
:1031D000138906009304070013D685009305401653
:1031E000EFF01FDF1376FA0F930550161305040056
:1031F000EFF01FDE13D68900930560161305040057
:10320000EFF01FDD13F6F90F930570161305040098
:10321000EFF01FDC13568900930580161305040098
:10322000EFF01FDB1376F90F9305901613050400DA
:10323000EFF01FDA13D684009305A01613050400DF
:10324000EFF01FD913F6F40F9305B0161305040021
:10325000EFF01FD88320C1010324810183244101A1
:10326000032901018329C100032A810013010102FE
:1032700067800000130101FF232611002324810031
:1032800023229100930405001304060093072000F5
:1032900063F4B700930530009307200063F48700C0
:1032A00013043000138605009305401713850400AE
:1032B000EFF01FD213060400930550171385040086
:1032C000EFF01FD18320C10003248100832441003B
:1032D0001301010167800000130101FF2326110083
:1032E0002324810023229100130405009304060087
:1032F0001386050093057015EFF09FCD13D684005B
:103300001376F6009305801513050400EFF05FCCEB
:1033100013F6F40F9305901513050400EFF05FCB3F
:103320008320C10003248100832441001301010193
:1033300067800000130101FF232611002324810070
:10334000130405001306000093050010EFF05FC89A
:1033500013050400EFF0DFD41306100093054011AD
:1033600013050400EFF0DFC613060000930580127A
:1033700013050400EFF0DFC5130680019305A012CA
:1033800013050400EFF0DFC4130600009305B0122C
:1033900013050400EFF0DFC3130640009305001689
:1033A00013050400EFF0DFC2130690059305101615
:1033B00013050400EFF0DFC11306D00093052016BB
:1033C00013050400EFF0DFC01306800793053016E5
:1033D00013050400EFF0DFBF1307B06E9306402B18
:1033E00037160000130676A29305802A1305040001
:1033F000EFF09FDB1306804393050078130504006C
:10340000EFF05FD3130610009305001713050400B7
:10341000EFF01FBC130610009305101713050400EE
:10342000EFF01FBB13060000930500001305040016
:10343000EFF05FE41306A0009305C0181305040025
:10344000EFF01FB91306A0009305D0181305040070
:10345000EFF01FB813065000930510301305040059
:10346000EFF01FB71306100093053030130504006A
:10347000EFF01FB61306300093054030130504002B
:10348000EFF01FB51306300093055030130504000C
:10349000EFF01FB41306000093056030130504001D
:1034A000EFF01FB31306900393057030130504006B
:1034B000EFF01FB21306A00093059030130504002F
:1034C000EFF01FB1130610009305B0301305040090
:1034D000EFF01FB0130600009305C0301305040081
:1034E000EFF01FAF130620079305D030130504003B
:1034F000EFF01FAE1306A0009305903013050400F3
:10350000EFF01FAD130610009305B0301305040053
:10351000EFF01FAC130600009305C0301305040044
:10352000EFF01FAB130620079305D03013050400FE
:10353000EFF01FAA130610009305001013050400F6
:10354000EFF01FA9130600209305900B130504004C
:10355000EFF09FD81306D000930520161305040042
:10356000EFF01FA71306800793053016130504001C
:10357000EFF01FA613066000930500161305040064
:10358000EFF01FA51306300E930510161305040067
:10359000EFF01FA4130640009305A01513050400C7
:1035A000EFF01FA3130640059305B01513050400A3
:1035B000EFF01FA213060000930520171305040067
:1035C000EFF01FA18320C10003248100130101013A
:1035D0006780000013070504930700212320F504EA
:1035E0008327070093F70701E39C07FE678000002D
:1035F0008327450093F70710E39C07FE67800000D0
:10360000130101FF23261100130710302322E500C8
:10361000EFF01FFE8320C10013010101678000004D
:103620000325C5001375F50F1335150067800000DD
:1036300003254500135505011375F50F678000003C
:10364000130101FF2326110023248100232291006E
:10365000130405009384050013050400EFF05FFDDB
:10366000E30C05FE232094008320C1000324810085
:10367000832441001301010167800000130101FF51
:103680002326110093050500370501F8EFF05FFBD5
:103690008320C1001301010167800000130101FFB5
:1036A0002326110023248100130405006F00C000AD
:1036B00013041400EFF09FFC03450400E31A05FE19
:1036C0008320C100032481001301010167800000F1
:1036D000130101FF232611002324810023229100DE
:1036E000930405001304C0016F00400233D7840027
:1036F0001377F700B747000093870738B387E700D1
:1037000003C50700EFF09FF71304C4FFE35004FE66
:103710008320C1000324810083244100130101019F
:1037200067800000130101FF23261100232481007C
:1037300023229100930405001304C0016F0040028E
:1037400033D784001377F700B747000093874739D2
:10375000B387E70003C50700EFF05FF21304C4FF6F
:10376000E35004FE8320C100032481008324410030
:103770001301010167800000130101FF23261100DE
:103780001375F50FEFF09FEF8320C10013010101C6
:1037900067800000130101FF23261100EFF01FF0E6
:1037A0008320C1001301010167800000130101FDA6
:1037B000232611022324810223229102930405006F
:1037C00063460500130401006F00C0021305D00218
:1037D000EFF09FFAB30490406FF0DFFE1307A000F4
:1037E000B3E7E402938707032300F400B3C4E402C1
:1037F00013041400E39404FE93070100E300F4FEB5
:1038000093070100630AF4001304F4FF0345040066
:10381000EFF09FF66FF0DFFE8320C10203248102E8
:10382000832441021301010367800000130101FF9B
:1038300023261100130700009307700063C0E702FE
:1038400093162700930700FFB397D700B377F500CF
:1038500063860700130717006FF01FFEEFF09FEC61
:103860008320C1001301010167800000130101FFE3
:1038700023261100130700009307700063C0E702BE
:1038800093162700930700FFB397D700B377F5008F
:1038900063860700130717006FF01FFEEFF05FE36A
:1038A0008320C1001301010167800000130101FFA3
:1038B00023261100232481002322910013040500F4
:1038C00093840500EFF01FD1B7170000938707B06E
:1038D000B3E4F4002320940013050400EFF05FD25A
:1038E00013050400EFF0DFD38320C100032481001F
:1038F000832441001301010167800000130101FCD2
:10390000232E1100232C8100232A9100930405000B
:103910002322B1022324C1022326D1022328E1025B
:10392000232AF102232C0103232E110393074102C2
:103930002326F100130400006F00C0018327C1009B
:10394000138747002326E10003A50700EFF0DFE21D
:1039500013041400B387840003C50700630E050A2F
:1039600093075002630EF506EFF01FE16FF05FFE64
:103970008327C100138747002326E10003A5070022
:10398000EFF05FE16FF0DFFC8327C1001387470092
:103990002326E10003A50700EFF05FE16FF05FFB76
:1039A0008327C100138747002326E10003A50700F2
:1039B000EFF0DFEB6FF0DFF98327C10013874700DB
:1039C0002326E10003A50700EFF05FE66FF05FF844
:1039D000374500001305853AEFF0DFDB6FF05FF746
:1039E00013041400B387840083C70700E38207F63B
:1039F000938787FA93F6F70F13070002E362D7FE67
:103A000093972600375700001307C7E8B387E700EE
:103A100083A70700678007008320C1010324810179
:103A2000832441011301010467800000130101FE9A
:103A3000232E1100232C8100232A91002328210109
:103A40002326310113090500938405001385050021
:103A5000EFE08FBB130400009307100063E8870AB0
:103A6000B7570000131724003307870013172700E8
:103A7000938707F1B387E70083C90700938509009F
:103A800013850400EFF09FE2930710006306F50032
:103A9000130414006FF05FFC23244101375A000027
:103AA00093172400B387870093972700130A0AF11E
:103AB000330AFA0093D6190003268A0093050900F9
:103AC00037550000130505C8EFF05FE38327CA00F0
:103AD0006386070013850400E7800700B7570000DE
:103AE000131724003307870013172700938707F164
:103AF000B387E70083A707016380070413850400E9
:103B0000E7800700032A81006F0040019305090048
:103B100037550000130585CAEFF05FDE8320C10131
:103B20000324810183244101032901018329C10068
:103B30001301010267800000032A81006FF01FFE5D
:103B4000130101FF23261100930505001305000052
:103B5000EFF0DFED8320C100130101016780000059
:103B600003254500135505011375F50F6780000007
:103B7000130101FF23261100232481002322910039
:103B8000130405009384050013050400EFF05FFDA6
:103B9000E30C05FE232094008320C1000324810050
:103BA000832441001301010167800000130101FF1C
:103BB0002326110023248100232291009304050071
:103BC000138405006F000001130414001385040022
:103BD000EFF01FFA83450400E39805FE8320C1003F
:103BE0000324810083244100130101016780000048
:103BF00003250504137515006780000013070504ED
:103C0000930700212320F5048327070093F707017A
:103C1000E39C07FE67800000130101FF23261100CB
:103C2000232481001304050013050400EFF05FFC5A
:103C3000E31C05FE8320C100032481001301010160
:103C400067800000130101FF2326110013070042C3
:103C50002320E504EFF05FFC8320C1001301010184
:103C6000678000008327450093F70710E39C07FE59
:103C700067800000130101FF232611001307103095
:103C80002322E500EFF01FFE8320C1001301010194
:103C9000678000000325C5001375F50F1335150067
:103CA00067800000130101FE232E1100232C8100E8
:103CB000232A910023282101232631011304050022
:103CC0009384050013090600EFF05FF3B7170000B7
:103CD000938747B32320F40013050400EFF09FF906
:103CE00013050400EFF01FFBEFE00F8D93D7840066
:103CF000B7190000938909B0B3E737012320F40016
:103D000013050400EFF01FF713050400EFF09FF810
:103D1000EFE08F8A93F4F40FB3E43401232094008E
:103D200013050400EFF01FF513050400EFF09FF6F4
:103D3000EFE08F8833693901232024011305040043
:103D4000EFF05FF313050400EFF0DFF4EFE0CF8650
:103D500013050400EFF01FEF8320C101032481014C
:103D600083244101032901018329C10013010102B8
:103D700067800000130101FF2326110013061000C5
:103D800093050010EFF01FF28320C1001301010121
:103D900067800000130101FF2326110013060000B5
:103DA00093050010EFF01FF08320C1001301010103
:103DB00067800000130101FF2326110023248100E6
:103DC0002322910093040500130400006F00800279
:103DD000B7570000131724009387073AB387E7000B
:103DE00003C6270083D5070013850400EFF09FEB7F
:103DF000130414009307F002E3FC87FC8320C10046
:103E00000324810083244100130101016780000025
:103E1000130101FF232611002322910093040500C2
:103E200063860508930710006382F50C9307200052
:103E30006396F50623248100130400009307E00530
:103E400063EC870AB7570000131724009387C7F461
:103E5000B387E70003C6270083D507001385040056
:103E6000EFF05FE4130414006FF05FFDB75700003C
:103E70001317240093874723B387E70003C627005F
:103E800083D5070013850400EFF0DFE1130414006D
:103E90009307A005E3FC87FC032481008320C10075
:103EA0008324410013010101678000002324810065
:103EB000130400006FF0DFFDB75700001317240054
:103EC0009387870CB387E70003C6270083D50700D5
:103ED00013850400EFF01FDD130414009307A00501
:103EE000E3FC87FC032481006FF05FFB2324810047
:103EF000130400006FF09FFE032481006FF01FFA8F
:103F0000130101FF232611002324810023229100A5
:103F100093040500130400006F00400213172400EF
:103F200093878181B387E70003C6270083D5070005
:103F300013850400EFF01FD713041400930710003B
:103F4000E3FE87FC8320C100032481008324410019
:103F50001301010167800000130101FF23261100F6
:103F6000232481001304050013060000B7C50000D8
:103F700093858542EFF01FD313064000B7C50000BC
:103F80009385954213050400EFF0DFD18320C10033
:103F9000032481001301010167800000130101FE69
:103FA000232E1100232C8100232A91002328210194
:103FB0002326310193090500930400006F00400699
:103FC000139904011359090193079000B3E7F40210
:103FD00037540000130484F33304F400B785000061
:103FE000938505B1B305B900034604009395050117
:103FF00093D5050113850900EFF0DFCAB7870000EC
:10400000938707C0B305F900034694009395050113
:1040100093D5050113850900EFF0DFC893841400E0
:1040200093075003E3DE97F88320C1010324810145
:1040300083244101032901018329C10013010102E5
:1040400067800000130101FF232611002324810053
:1040500013040500EFF09FBAB7170000938787B1EC
:104060002320F40013050400EFF0DFC01305040063
:10407000EFF05FC2EFD05FD4B7170000938727B08F
:104080002320F40013050400EFF0DFBE1305040045
:10409000EFF05FC0EFD05FD2B7170000938707B093
:1040A0002320F40013050400EFF0DFBC1305040027
:1040B000EFF05FB98320C1000324810013010101E7
:1040C00067800000130101FF2326110023248100D3
:1040D00013040500EFF09FB2B7170000938787B174
:1040E0002320F40013050400EFF0DFB813050400EB
:1040F000EFF05FBAEFD05FCCB7170000938727B01F
:104100002320F40013050400EFF0DFB613050400CC
:10411000EFF05FB8EFD05FCAB7170000938717B012
:104120002320F40013050400EFF0DFB413050400AE
:10413000EFF05FB18320C10003248100130101016E
:1041400067800000130101FE232E1100232C810043
:10415000232A91002328210123263101130405007D
:10416000938405009307E03F63F4B7009304F03FA6
:1041700013050400EFF09FA8B7190000938989B1D7
:104180002320340113050400EFF0DFAE1305040013
:10419000EFF05FB0EFD05FC2B7170000938737B082
:1041A0002320F40013050400EFF0DFAC1305040036
:1041B000EFF05FAEEFD05FC093D7840093F7370086
:1041C00037190000130909B0B3E727012320F400D1
:1041D00013050400EFF01FAA13050400EFF09FABD6
:1041E000EFD09FBD13050400EFF0DFA51305040019
:1041F000EFF0DFA02320340113050400EFF09FA7A8
:1042000013050400EFF01FA9EFD01FBBB717000084
:10421000938747B02320F40013050400EFF09FA517
:1042200013050400EFF01FA7EFD01FB993F4F40FAC
:10423000B3E424012320940013050400EFF09FA3AE
:1042400013050400EFF01FA5EFD01FB713050400FE
:10425000EFF05F9F8320C10103248101832441018A
:10426000032901018329C1001301010267800000B5
:10427000130101FF232611002324810013040500EC
:10428000EFF05FB113050400EFF0DFB21305040097
:10429000EFF0DFD09305100013050400EFF05FB7D7
:1042A00013050400EFF0DFC513050400EFF0DFCACB
:1042B00013050400EFF01FD99305C02B130504006C
:1042C000EFF05FE813050400EFF0DFDFB755000003
:1042D000938585CE370501F8EFF05F8D8320C1000F
:1042E000032481001301010167800000130101FC18
:1042F0002320110023225100232461002326710072
:104300002328A100232AB100232CC100232ED10091
:104310002320E1022322F102232401032326110397
:104320002328C103232AD103232CE103232EF103E5
:10433000EFD0DF9583200100832241000323810019
:104340008323C10003250101832541010326810147
:104350008326C1010327010283274102032881022A
:104360008328C102032E0103832E4103032F8103FF
:0C437000832FC1031301010473002030EF
:10438000303132333435363738394142434445468B
:10439000000000003031323334353637383961624D
:1043A00063646566000000003C466C6F6174696E72
:1043B0006720706F696E74207072696E74696E67C1
:1043C000206E6F7420656E61626C652E20506C6586
:1043D00061736520456E61626C652069742061744B
:1043E000206273702E682066697273742E2E2E3EC2
:1043F000000000000A2A2A2A204352415348202A5A
:104400002A2A0A00417373657274206661696C75AB
:1044100072650A00544F54414C20495350206D6935
:104420006E696D756D206C6174656E63793A2025D7
:104430006420636C6F636B206379636C65730A0D32
:1044400000000000544F54414C20495350206D69E6
:104450006E696D756D206C6174656E63793A204F7D
:10446000564552464C4F570A0D000000424C43201F
:104470006D696E696D756D206C6174656E63793AF6
:1044800020256420636C6F636B206379636C6573B4
:104490000A0D0000424C43206D696E696D756D20F8
:1044A0006C6174656E63793A204F564552464C4FA5
:1044B000570A0D00434F4C4F5552204741494E205B
:1044C0006D696E696D756D206C6174656E63793AA6
:1044D00020256420636C6F636B206379636C657364
:1044E0000A0D0000434F4C4F5552204741494E2082
:1044F0006D696E696D756D206C6174656E63793A76
:10450000204F564552464C4F570A0D0044454D4FDB
:1045100053414943206D696E696D756D206C6174FE
:10452000656E63793A20256420636C6F636B20634A
:1045300079636C65730A0D0044454D4F53414943FF
:10454000206D696E696D756D206C6174656E63793F
:104550003A204F564552464C4F570A0D0000000076
:1045600043434D206D696E696D756D206C61746596
:104570006E63793A20256420636C6F636B206379E6
:10458000636C65730A0D000043434D206D696E69CD
:104590006D756D206C6174656E63793A204F564578
:1045A00052464C4F570A0D0047414D4D41206D6911
:1045B0006E696D756D206C6174656E63793A202546
:1045C0006420636C6F636B206379636C65730A0DA1
:1045D0000000000047414D4D41206D696E696D75C9
:1045E0006D206C6174656E63793A204F5645524672
:1045F0004C4F570A0D000000544F54414C20495372
:1046000050206D6178696D756D206C6174656E63A5
:10461000793A20256420636C6F636B206379636C47
:1046200065730A0D00000000544F54414C2049535B
:1046300050206D6178696D756D206C6174656E6375
:10464000793A204F564552464C4F570A0D0000000C
:10465000424C43206D6178696D756D206C617465A5
:104660006E63793A20256420636C6F636B206379F5
:10467000636C65730A0D0000424C43206D617869DC
:104680006D756D206C6174656E63793A204F564587
:1046900052464C4F570A0D00434F4C4F555220473E
:1046A00041494E206D6178696D756D206C6174654E
:1046B0006E63793A20256420636C6F636B206379A5
:1046C000636C65730A0D0000434F4C4F55522047F1
:1046D00041494E206D6178696D756D206C6174651E
:1046E0006E63793A204F564552464C4F570A0D009B
:1046F00044454D4F53414943206D6178696D756D57
:10470000206C6174656E63793A20256420636C6F58
:10471000636B206379636C65730A0D0044454D4FEC
:1047200053414943206D6178696D756D206C6174EA
:10473000656E63793A204F564552464C4F570A0DE5
:104740000000000043434D206D6178696D756D2058
:104750006C6174656E63793A20256420636C6F63C5
:104760006B206379636C65730A0D000043434D2031
:104770006D6178696D756D206C6174656E63793AF1
:10478000204F564552464C4F570A0D0047414D4D5C
:1047900041206D6178696D756D206C6174656E6323
:1047A000793A20256420636C6F636B206379636CB6
:1047B00065730A0D0000000047414D4D41206D61B9
:1047C00078696D756D206C6174656E63793A204F00
:1047D000564552464C4F570A0D00000053656C6514
:1047E000637465642044656D6F204D6F64653A2085
:1047F000610A0D0053656C65637465642044656DE2
:104800006F204D6F64653A20620A0D0053656C6538
:10481000637465642044656D6F204D6F64653A2054
:10482000630A0D0053656C65637465642044656DAF
:104830006F204D6F64653A20640A0D0053656C6506
:10484000637465642044656D6F204D6F64653A2024
:10485000650A0D0053656C65637465642044656D7D
:104860006F204D6F64653A20660A0D0053656C65D4
:10487000637465642044656D6F204D6F64653A20F4
:10488000670A0D00496E76616C69642044656D6F3E
:10489000204D6F64653A2025630A0D003D3D3D3D86
:1048A0003D3D3D3D3D3D3D3D3D3D3D3D3D3D3D3D38
:1048B0003D3D3D3D3D3D3D3D3D3D3D3D3D3D3D3D28
:1048C0003D3D3D3D3D3D3D3D3D3D3D3D3D3D3D3D18
:1048D0003D3D3D3D3D3D3D3D3D3D3D3D3D3D3D3D08
:1048E0003D3D3D3D3D3D3D3D3D3D3D3D0A0D0000D5
:1048F00020202020202020202020202020202020B8
:1049000020202020495350204578616D706C65202F
:1049100044657369676E205363656E6172696F20C9
:1049200053656C656374696F6E0A0D0027612720FB
:104930003A2043616D6572612043617074757265E0
:10494000202B2048444D4920446973706C617920C4
:104950002020202020202020202020202020202057
:104960002020202020202020202020202020202047
:104970002020202020202020202020200A0D0000A0
:10498000276227203A2043616D6572612043617080
:1049900074757265202B20524742324772617973D9
:1049A00063616C652028535729202B2048444D49CA
:1049B00020446973706C6179202020202020202001
:1049C00020202020202020202020202020202020E7
:1049D0000A0D0000276327203A2043616D6572614C
:1049E0002043617074757265202B20524742324714
:1049F0007261797363616C652028535729202B20DD
:104A0000536F62656C2028485729202B2048444D5D
:104A10004920446973706C61792020202020202077
:104A2000202020200A0D0000276427203A2043611F
:104A30006D6572612043617074757265202B205220
:104A4000474232477261797363616C652028485729
:104A500029202B2048444D4920446973706C6179AA
:104A60002020202020202020202020202020202046
:104A700020202020202020200A0D0000276527204C
:104A80003A2043616D65726120436170747572658F
:104A9000202B2052474232477261797363616C6503
:104AA000202620536F62656C2028485729202B2030
:104AB00048444D4920446973706C6179202020205E
:104AC0002020202020202020202020200A0D00004F
:104AD000276627203A2043616D657261204361702B
:104AE00074757265202B2052474232477261797388
:104AF00063616C65202620536F62656C202620441C
:104B0000696C6174696F6E2028485729202B2048F2
:104B1000444D4920446973706C6179202020202025
:104B20000A0D0000276727203A2043616D657261F6
:104B30002043617074757265202B205247423247C2
:104B40007261797363616C65202620536F62656CB6
:104B500020262045726F73696F6E202028485729E0
:104B6000202B2048444D4920446973706C617920A2
:104B7000202020200A0D00003D3D3D3D3D3D3D3DB6
:104B80003D3D3D3D3D3D3D3D3D3D3D3D3D3D3D3D55
:104B90003D3D3D3D3D3D3D3D3D3D3D3D3D3D3D3D45
:104BA0003D3D3D3D3D3D3D3D3D3D3D3D3D3D3D3D35
:104BB0003D3D3D3D3D3D3D3D3D3D3D3D3D3D3D3D25
:104BC0003D3D3D3D3D3D3D3D0A0A0D000A0D486518
:104BD0006C6C6F204566696E697820456467652056
:104BE000566973696F6E20536F4321210A0A0D00C5
:104BF000496E69742043616D6572612E2E2E2E2ED2
:104C000000000000446F6E650A0D0000496E697473
:104C100020444D412E2E2E2E2E000000446F6E6536
:104C20002021210A0A0D0000496E697469616C69CE
:104C30007A65207465737420646973706C6179207F
:104C4000636F6E74656E742E2E0A0D000A547269BD
:104C50006767657220646973706C617920444D41A7
:104C60002E2E0A0D0000000044656661756C7420EC
:104C700044656D6F204D6F64653A20610A0D000038
:104C800043616D6572612564206465746563746554
:104C9000643A2025732028616464723A20307825B4
:104CA000303258290D0A000063616D256420646567
:104CB0007465637465643A204E6F6E650A00000087
:104CC000506943616D2076322028494D5832313980
:104CD00029000000506943616D2076332028494D3A
:104CE00058373038290000000A0D446F6E652043A4
:104CF000616D65726120496E69740000741B00006B
:104D0000B41B0000B41B0000B41B0000B41B000067
:104D1000B41B0000B41B0000B41B0000B41B000057
:104D2000B41B0000B41B0000101B00005C1B000043
:104D3000B41B0000A41B0000B41B0000B41B000047
:104D4000B41B0000B41B0000B41B0000B41B000027
:104D5000B41B0000B41B0000B41B0000B41B000017
:104D6000B41B0000B41B0000441B0000B41B000077
:104D7000B41B0000B41B0000B41B00008C1B00001F
:104D80001424000054240000542400005424000083
:104D90005424000054240000542400005424000033
:104DA000542400005424000054240000B0230000C8
:104DB000FC2300005424000044240000542400007C
:104DC0005424000054240000542400005424000003
:104DD00054240000542400005424000054240000F3
:104DE000542400005424000054240000E423000054
:104DF00054240000542400005424000054240000D3
:104E00002C240000C82400006C2500009825000018
:104E1000C4250000F02500001C26000048260000E4
:104E200074260000A0260000CC260000F826000012
:104E300024270000882B0000BC2B0000E82B00007A
:104E4000142C0000402C00006C2C0000982C00005A
:104E5000C42C0000F02C00001C2D0000B02B000022
:104E6000B02B0000B02B0000B02B0000B02B0000D6
:104E7000B02B0000B02B0000482D0000742D000066
:104E8000A02D0000602A0000CC2D0000A0390000F9
:104E9000E0390000E0390000E0390000E0390000AE
:104EA000E0390000E0390000E0390000E03900009E
:104EB000E0390000E03900003C390000883900008A
:104EC000E0390000D0390000E0390000E03900008E
:104ED000E0390000E0390000E0390000E03900006E
:104EE000E0390000E0390000E0390000E03900005E
:104EF000E0390000E039000070390000E0390000BE
:104F0000E0390000E0390000E0390000B839000065
:104F10002000000001000000C04C000034330000FD
:104F2000000000003400000002000000D44C00002B
:104F300070420000743D00004C4C4C463E38353504
:104F400035353535383E464C4C4C00004203140094
:104F500043036000400309004103B500440301001E
:104F600045038000460300004703D80048031000B3
:104F700049037F004A0309004B0347002002010058
:104F800022020200000900000109110002090A00C2
:104F90000032010001320100D5320000D63200009B
:104FA000DB320100DF3200000C3500000D3500005F
:104FB00008040000090400000A0400000B040000BB
:104FC0000C0407000D0480000E0404000F043800D8
:104FD0004C0307004D0380004E0304004F033800CC
:104FE000010305000303020005030200060300009D
:104FF0000703A2000B0302000D0304000E030100CF
:105000000F032C0010030100A03C0000A13C000095
:10501000A43C0000A53C0000A63C0000A73C2800E2
:10502000AA3C0000AB3C0000B83C0000B93C30009A
:10503000BA3C0000BB3C0000BC3C0000BD3C320060
:10504000BE3C0000BF3C000002020B000302A400B3
:10505000240202002502E900163105001731D200B2
:1050600004020300050284001602030017028400F4
:1050700018020100190200000E0201000F020000D8
:1050800018310300193184001A3101001B3100006E
:105090001A3400001B3400001C3400001D340000D2
:1050A0001E3400001F3490002034000021346C00B6
:1050B000603301006133010066330900673300008B
:1050C000683305006933100042031D0043031000DC
:1050D0004003050041032000440301004503800014
:1050E000460300004703D8004803100049037F002F
:1050F0004A0309004B03470020026200220200001D
:1051000000090100010922000209080000324100E3
:1051100001324100D5320000D6320000DB320100FE
:10512000DF3200000C3500000D35000008040000DF
:10513000090400000A0400000B0400000C0407002E
:105140000D0480000E0404000F0438004C03070017
:105150004D0380004E0304004F0338000103050097
:1051600003030200050302000603000007037A00A0
:105170000B0302000D03040010030100A03C00001B
:10518000A13C3C00A43C0000A53C3C00A63C000027
:10519000A73C0000AA3C0000AB3C0000B83C00006B
:1051A000B93C1C00BA3C0000BB3C0800BC3C000001
:1051B000BD3C1E00BE3C0000BF3C0A0002020300D2
:1051C00003021300240220002502F400163101001E
:1051D0001731F400040203000502840016020000E7
:1051E0001702700018020100190200000E020100EF
:1051F0000F02000018310000193170001A3101004F
:105200001B3100001A3400001B3400001C34000065
:105210001D3400001E3400001F34900020340000B4
:1052200021346C00663300006733000068330000EF
:105230006933000042031D004303100040030600D1
:105240004103400044030000450300004603000002
:1052500047030000480311004903FF004A030A0006
:105260004B031F002002620022020100000900001F
:105270000109110002090A00003201000132010097
:10528000D5320100D6320000DB320100DF320000EF
:105290000C3500000D350000080400000904000072
:1052A0000A0400000B0400000C0407000D04800039
:1052B0000E0404000F0438004C0307004D03800067
:1052C0004E0304004F0338000103050003030200EE
:1052D000050302000603000007037C000B03020025
:1052E0000D03040010030100A03C0000A13C640079
:1052F000A43C0000A53C0000A63C0000A73C000028
:10530000AA3C0000AB3C0000B83C0000B93C0800DF
:10531000BA3C0000BB3C0000BC3C0000BD3C3C0073
:10532000BE3C0000BF3C000002020300030220005C
:10533000240201002502F400163101001731F400A7
:1053400004020300050220001602000017020000FC
:1053500018020100190200000E0203000F020000F3
:1053600018310000193100001A3101001B31000012
:105370001A3400001B3400001C3400001D340000EF
:105380001E3401001F342000203400002134D800D6
:1053900066330000673300006833000069330000A3
:1053A000000100003601180037010000F033020050
:1053B000F1330500623000006330120068300000F5
:1053C000693012006A3000006B3030007630000027
:1053D000773030007830000079303000545E0C00B7
:1053E000446E0000B6B0010029E8000001F008009A
:1053F00003F008000DF010000FF0100031F008006D
:1054000033F008003DF010003FF0100012010A00D8
:1054100013010A00140101008E0B01008F0B000024
:10542000940B0100950B000000340100783401005A
:1054300079341C00913001009230000019340000D2
:10544000F1BC02009430010095300100623300008D
:10545000633300006433000065330000380101004D
:105460000020202020202020202028282828282034
:10547000202020202020202020202020202020202C
:105480002088101010101010101010101010101094
:105490001004040404040404040404101010101084
:1054A000101041414141414101010101010101014E
:1054B00001010101010101010101010110101010A0
:1054C0001010424242424242020202020202020220
:1054D0000202020202020202020202021010101074
:1054E000200000000000000000000000000000009C
:1054F00000000000000000000000000000000000AC
:10550000000000000000000000000000000000009B
:10551000000000000000000000000000000000008B
:10552000000000000000000000000000000000007B
:10553000000000000000000000000000000000006B
:10554000000000000000000000000000000000005B
:10555000000000000000000000000000000000004B
:10556000000000000000000000000000D056000015
:1055700038570000A05700000000000000000000A5
:10558000000000000000000000000000000000001B
:10559000000000000000000000000000000000000B
:1055A00000000000000000000000000000000000FB
:1055B00000000000000000000000000000000000EB
:1055C00000000000000000000000000000000000DB
:1055D00000000000000000000000000000000000CB
:1055E00000000000000000000000000000000000BB
:1055F00000000000000000000000000000000000AB
:1056000001000000000000000E33CDAB34126DE647
:10561000ECDE05000B0000000000000000000000B0
:10562000000000000000000000000000000000007A
:10563000000000000000000000000000000000006A
:10564000000000000000000000000000000000005A
:10565000000000000000000000000000000000004A
:10566000000000000000000000000000000000003A
:10567000000000000000000000000000000000002A
:10568000000000000000000000000000000000001A
:10569000000000000000000000000000000000000A
:1056A000000000000000000068550000000000003D
:1056B0000E0301000F032C0000000000000000009A
:0256C0000000E8
:0400000300001000E9
:00000001FF
