:1010000097410000938181791751000013018115E8
:1010100017350000130505079735000093858506F1
:1010200017460000130646FA63FCC500832205003C
:1010300023A055001305450093854500E3E8C5FE50
:1010400017450000130545F89745000093850511E5
:101050006378B5002320050013054500E36CB5FE59
:10106000EF00C021EF00C02A6F0000006780000081
:101070001306A000930500006F00801E130101FFFE
:10108000232611009307400263E6D70C13071000D4
:101090009382060093870500974800009388D8CC78
:1010A000638AE60A232481002322910003C80700F3
:1010B000138307009387170033870801034707004E
:1010C00013778700E31407FE1307D002630EE814BA
:1010D0001307B002630EE808B70300809383F3FFA1
:1010E000930400006392060A130700036308E814E0
:1010F0009302A0009306A00033F4530213030000F0
:1011000093080000130E9000930F9001930EF0FFD0
:1011100033DF5302130708FD6378EE001307F8FB73
:1011200063E0EF0A130798FC6354D70A630ED301F8
:101130001303F0FF636A1F0163061F0D1303100002
:10114000B3885802B30817019387170003C8F7FF45
:101150006FF05FFCEF0000128320C1009307600175
:101160002320F50013050000130101016780000032
:10117000B703008003C807009383F3FF930723009E
:1011800093040000E38206F613070001E396E6F6F7
:101190001307000393020001E310E8F603C70700FA
:1011A000930880051377F70DE31817F503C81700A8
:1011B0009302000193872700930600016FF0DFF38D
:1011C0001307F8F963E6EF00130798FAE340D7F640
:1011D0001307F0FF630CE30263840400B3081041BB
:1011E00063060600631A03062320B6000324810069
:1011F0008320C100832441001385080013010101ED
:1012000067800000E342E4F46FF05FF3130720020D
:101210002320E50093880300E30A06FC9385F7FF8B
:10122000938803006FF05FFC03C80700B7030080DA
:1012300093072300930410006FF0DFEA03C7070051
:1012400093088005930280001377F70D93068000C2
:10125000E31417EB6FF09FF5938308006FF01FFC0A
:1012600093060600138605009305050003A501817A
:101270006FF0DFE003A5018167800000130101FF2B
:10128000232481002320210197370000938787DFE3
:1012900017340000130404DF2326110023229100D9
:1012A00033898740638087021359294093040000E3
:1012B000832704009384140013044400E78007008C
:1012C000E3E824FF973700009387C7DB173400005B
:1012D000130444DB3389874013592940638E870008
:1012E0009304000083270400938414001304440033
:1012F000E7800700E3E824FF8320C1000324810086
:1013000083244100032901001301010167800000CB
:10131000130101FF2326110023248100374500001B
:1013200013054550EF108004374500001305855222
:10133000EF10C003370410F8232204003706B0F87A
:10134000B7E5F5059385051013054006EF00103D40
:10135000930720002322F4003706B0F8B7E5F5051F
:10136000938505103725000013050571EF00103B2C
:10137000375501F8EF20004D930730002322F40089
:10138000374500001305C553EF00507E3745000078
:1013900013054554EF00907DEF10C019EF00900742
:1013A000930600001306000093054000370511F86E
:1013B000EF00507A930600001306000093053000FA
:1013C000370511F8EF0010799306000013060000AE
:1013D00093052000370511F8EF00D0779306000041
:1013E0001306000093050000370511F8EF00907612
:1013F0003745000013054555EF00507723AA0182B9
:101400003745000013050556EF005076130600001F
:101410006F00001113072000635CC7006340F70AE8
:1014200013078021635CC7086F008000635CC708F6
:101430001307C0213307E6023307F700131727000D
:10144000B70610003387E6009306F00F2320D7007D
:101450006F0040051307C0213307E6023307F7008A
:1014600013172700B70610003387E600B706010000
:10147000938606F02320D7006F00C002130740199F
:10148000634CF7061307C0213307E6023307F70062
:1014900013172700B70610003387E6009306F00FF6
:1014A0002320D700938717001307B0216348F7065E
:1014B0001387D7FF93065021E3EEE6F4130780214C
:1014C000E346F7F613076008E356F7F81307D01062
:1014D000E346F7FA1307C0213307E6023307F700A4
:1014E00013172700B70610003387E600B706FF0082
:1014F0002320D7006FF01FFB1307C0213307E6023C
:101500003307F70013172700B70610003387E600EC
:10151000B706FF002320D7006FF0DFF81306160090
:101520009307B02163C6C700930700006FF0DFF791
:101530003745000013054558EF005063930600013E
:101540003706100093052000370511F8EF00105002
:101550009307100013070000930600001306000015
:1015600093052000370511F8EF00D0561306400010
:1015700093052000370511F8EF00105B930600007B
:1015800037D61100130606C493052000370511F85D
:10159000EF0010571307100023A8E1823715000051
:1015A00013058538EF0050033745000013054555F6
:1015B000EF00D05BEF10005D374500001305055AC2
:1015C000EF00D05A6F004010B70710F823A60700AD
:1015D0006F0000119306C0211306C021B70550000B
:1015E00037051000EF00906B6F00C017B70712F8B7
:1015F00023A2070093060001370610009305400060
:10160000370511F8EF00904493071000130700000E
:10161000930600001306000093054000370511F8FB
:10162000EF00504B83A74183130720006386E70038
:10163000130740006396E7189306000037D61100A1
:101640001306464B93054000370511F8EF00504B49
:1016500013070000930610001306000093053000E6
:10166000370511F8EF00904393060001370690000C
:1016700093053000370511F8EF00D03F93060000C6
:1016800037D61100130606C493053000370511F84C
:10169000EF001047B70712F81307100023A4E70064
:1016A00023A4070093054000370511F8EF005049C7
:1016B000E31A05FE93053000370511F8EF00504896
:1016C000E31205FE0F50000003A74183930720009B
:1016D000E3FCE7EEB70710F81307100023A6E700B6
:1016E0001307000093061000130600009305000086
:1016F000370511F8EF00903A930600013706100005
:1017000093050000370511F8EF00D036930600006E
:1017100037D61100130606C493050000370511F8EB
:10172000EF00103EB70710F81307100023A8E700DA
:1017300023A80700B70710F823A4E70023A4070095
:1017400093050000370511F8EF00903FE31A05FEFE
:101750000F50000083A741839387F7FF1307100002
:10176000E37AF7E683A74183130720006386E70047
:1017700013073000E37AF7F4B70712F813075000A5
:1017800023A0E70083A7418313072000E380E7E657
:1017900013074000E38CE7E413075000638AE70077
:1017A000B70712F81307200023A2E7006FF09FE4A9
:1017B000B70712F81307100023A2E7006FF09FE3AA
:1017C0009306000037E61100130686D29305400009
:1017D000370511F8EF00D0326FF09FE793952500A1
:1017E000B385A50023A0C500678000009395750010
:1017F000B385A5009357560093972700B387F5004C
:1018000037270000B387E700130710003316C7001F
:10181000638A060003A707003366E60023A0C7001B
:101820006780000003A707001346F6FF3376E60043
:1018300023A0C700678000009395C500B385A5006D
:10184000B7072000B385F50023A0C500678000001E
:1018500003254500135505011375F50F678000003A
:10186000130101FF2326110023248100232291006C
:10187000130405009384050013050400EFF05FFDD9
:10188000E30C05FE232094008320C1000324810083
:10189000832441001301010167800000130101FF4F
:1018A0002326110093050500370501F8EFF05FFBD3
:1018B0008320C1001301010167800000130101FFB3
:1018C0002326110023248100130405006F00C000AB
:1018D00013041400EFF09FFC03450400E31A05FE17
:1018E0008320C100032481001301010167800000EF
:1018F000130101FF232611002324810023229100DC
:10190000930405001304C0016F00400233D7840024
:101910001377F700B747000093870708B387E700FE
:1019200003C50700EFF09FF71304C4FFE35004FE64
:101930008320C1000324810083244100130101019D
:1019400067800000130101FF23261100232481007A
:1019500023229100930405001304C0016F0040028C
:1019600033D784001377F700B74700009387470900
:10197000B387E70003C50700EFF05FF21304C4FF6D
:10198000E35004FE8320C10003248100832441002E
:101990001301010167800000130101FF23261100DC
:1019A0001375F50FEFF09FEF8320C10013010101C4
:1019B00067800000130101FF23261100EFF01FF0E4
:1019C0008320C1001301010167800000130101FDA4
:1019D000232611022324810223229102930405006D
:1019E00063460500130401006F00C0021305D00216
:1019F000EFF09FFAB30490406FF0DFFE1307A000F2
:101A0000B3E7E402938707032300F400B3C4E402BE
:101A100013041400E39404FE93070100E300F4FEB2
:101A200093070100630AF4001304F4FF0345040064
:101A3000EFF09FF66FF0DFFE8320C10203248102E6
:101A4000832441021301010367800000130101FF99
:101A500023261100130700009307700063C0E702FC
:101A600093162700930700FFB397D700B377F500CD
:101A700063860700130717006FF01FFEEFF09FEC5F
:101A80008320C1001301010167800000130101FFE1
:101A900023261100130700009307700063C0E702BC
:101AA00093162700930700FFB397D700B377F5008D
:101AB00063860700130717006FF01FFEEFF05FE368
:101AC0008320C1001301010167800000130101FCA4
:101AD000232E1100232C8100232A9100930405005A
:101AE0002322B1022324C1022326D1022328E102AA
:101AF000232AF102232C0103232E11039307410211
:101B00002326F100130400006F00C0018327C100E9
:101B1000138747002326E10003A50700EFF0DFE766
:101B200013041400B387840003C50700630E050A7D
:101B300093075002630EF506EFF01FE66FF05FFEAD
:101B40008327C100138747002326E10003A5070070
:101B5000EFF05FE66FF0DFFC8327C10013874700DB
:101B60002326E10003A50700EFF05FE66FF05FFBBF
:101B70008327C100138747002326E10003A5070040
:101B8000EFF0DFF06FF0DFF98327C1001387470024
:101B90002326E10003A50700EFF05FEB6FF05FF88D
:101BA000374500001305850AEFF0DFE06FF05FF7BF
:101BB00013041400B387840083C70700E38207F689
:101BC000938787FA93F6F70F13070002E362D7FEB5
:101BD000939726003747000013074763B387E70052
:101BE00083A70700678007008320C10103248101C8
:101BF000832441011301010467800000130101FFE8
:101C000023261100374500001305450FEFF01FECA8
:101C10006F000000130101FF2326110013060000CE
:101C2000930500003705C0F8EFF01FC193061000C0
:101C300013066000930500003705C0F8EFF01FBBE6
:101C400013061000930560003705C0F8EFF01FB9C8
:101C5000B7470000938707FF73905730B71700000E
:101C60009387078073A04730F327003037270000A1
:101C700013078780B3E7E700739007308320C10024
:101C80001301010167800000130101FF23261100E9
:101C9000F327203463D2070213F7F7009307B0004D
:101CA000631AF700EF00D0658320C1001301010122
:101CB00067800000EFF09FF4EFF05FF4032545002C
:101CC000135505011375F50F67800000130101FF1F
:101CD00023261100232481002322910013040500F0
:101CE0009384050013050400EFF05FFDE30C05FE8F
:101CF000232094008320C100032481008324410019
:101D00001301010167800000130101FF2326110068
:101D100023248100232291009304050013840500ED
:101D20006F0000011304140013850400EFF01FFA84
:101D300083450400E39805FE8320C100032481004D
:101D4000832441001301010167800000B7470F00A1
:101D500093870724B3D5F502B7C70000938787FFA1
:101D60003306F60083270600B385A5023387F50006
:101D700083270600B307F740E3DC07FE6780000017
:101D800083A705002324F50283A745002326F50237
:101D900083A785002328F50283A7C5002328F5041F
:101DA00083A70501232AF50483A74501232CF50405
:101DB000678000006304050067800000130101FFD5
:101DC00023261100B745000093854510370501F81B
:101DD000EFF09FF36F000000130101FF23261100B5
:101DE0003706B0F8B7E5F505938505109307803EF3
:101DF0003305F502EFF09FF58320C10013010101C7
:101E000067800000130101FD2326110293073000B3
:101E10002324F100B78701009387076A2326F10086
:101E2000930720032328F1009307D007232AF1000A
:101E3000232CF1009307A00F232EF10093058100BE
:101E4000EFF01FF48320C10213010103678000003B
:101E500003254500135505011375F50F6780000034
:101E6000032545001355850167800000130101FF1C
:101E7000232611002324810023229100130405004E
:101E80009384050013050400EFF09FFCE30C05FEAE
:101E9000232094008320C100032481008324410077
:101EA0001301010167800000130101FF23261100C7
:101EB000232481001304050013050400EFF05FFAEA
:101EC000E30C05FE032504001375F50F8320C10004
:101ED00003248100130101016780000083A7C5006E
:101EE0002324F50083A705009387F7FF03A7450088
:101EF00013178700B3E7E70003A78500131707014F
:101F0000B3E7E7002326F5006780000003254500BE
:101F1000678000002322B50067800000B7470F00EC
:101F200093870724B3D5F502B7C70000938787FFCF
:101F30003306F60083270600B385A5023387F50034
:101F400083270600B307F740E3DC07FE6780000045
:101F5000130101FF2326110093050500370501F841
:101F6000EFF0DFF08320C100130101016780000062
:101F7000130101FF2326110023248100130405000F
:101F80006F00C00013041400EFF09FFC0345040031
:101F9000E31A05FE8320C10003248100130101011F
:101FA00067800000130101FF232611002324810014
:101FB00023229100930405001304C0016F00400226
:101FC00033D784001377F700B747000093870708DB
:101FD000B387E70003C50700EFF09FF71304C4FFC2
:101FE000E35004FE8320C1000324810083244100C8
:101FF0001301010167800000130101FF2326110076
:102000002324810023229100930405001304C001BE
:102010006F00400233D784001377F700B747000002
:1020200093874709B387E70003C50700EFF05FF226
:102030001304C4FFE35004FE8320C1000324810085
:10204000832441001301010167800000130101FF97
:10205000232611001375F50FEFF09FEF8320C100C9
:102060001301010167800000130101FF2326110005
:10207000EFF01FF08320C100130101016780000011
:10208000130101FD23261102232481022322910240
:102090009304050063460500130401006F00C002AD
:1020A0001305D002EFF09FFAB30490406FF0DFFE0B
:1020B0001307A000B3E7E402938707032300F400AB
:1020C000B3C4E40213041400E39404FE9307010074
:1020D000E300F4FE93070100630AF4001304F4FF25
:1020E00003450400EFF09FF66FF0DFFE8320C1028E
:1020F000032481028324410213010103678000004D
:10210000130101FF2326110013070000930770003D
:1021100063C0E70293162700930700FFB397D70029
:10212000B377F50063860700130717006FF01FFEF3
:10213000EFF09FEC8320C1001301010167800000D4
:10214000130101FF232611001307000093077000FD
:1021500063C0E70293162700930700FFB397D700E9
:10216000B377F50063860700130717006FF01FFEB3
:10217000EFF05FE38320C1001301010167800000DD
:10218000130101FE232E1100930780002320F1008C
:1021900023220100232401009307B0062326F10027
:1021A00093050100370501F8EFF05FD38320C101EB
:1021B000130101026780000093952500B385A500F7
:1021C00023A0C5006780000093957500B385A50026
:1021D0009357560093972700B387F50037270000E1
:1021E000B387E700130710003316C700638A0600A1
:1021F00003A707003366E60023A0C700678000003E
:1022000003A707001346F6FF3376E60023A0C700B6
:10221000678000009395C500B385A500B70720002F
:1022200093874700B385F50003A50500678000008C
:102230009395C500B385A500B70720009387470095
:10224000B385F50023A0C500678000009395750055
:102250003385A5002320C5009386F6FFB71700003D
:102260001387F7FFB3F6E600B3E6F6002326D500A2
:1022700067800000939575003385A5002328C5006D
:102280009386F6FFB71700001387F7FFB3F6E60053
:10229000B3E6F600232ED500678000009395750005
:1022A0003385A5002324C500630E0700B72700006F
:1022B000638E060037470000B3E7E7002326F500EA
:1022C00067800000930700006FF09FFE1307000077
:1022D0006FF09FFE939575003385A5009396860059
:1022E000B3E6C60013170701B3E6E600232CD500BA
:1022F00063840700B7270000232EF50067800000E5
:10230000939575003385A5001306F6FF2320C502BB
:1023100063880600930730002326F50267800000DB
:10232000930710006FF05FFF939575003385A5004C
:102330009307F0FF232AF5042328C50467800000D3
:1023400093957500B385A50003A5C5021375150007
:102350006780000093957500B385A500939686006D
:10236000B3E6C60023A2D50467800000130101FC78
:10237000232E1100232C8100232A910093040500B1
:102380002322B1022324C1022326D1022328E10201
:10239000232AF102232C0103232E11039307410268
:1023A0002326F100130400006F00C0018327C10041
:1023B000138747002326E10003A50700EFF01FC99C
:1023C00013041400B387840003C50700630E050AD5
:1023D00093075002630EF506EFF05FC76FF05FFEE4
:1023E0008327C100138747002326E10003A50700C8
:1023F000EFF09FC76FF0DFFC8327C1001387470012
:102400002326E10003A50700EFF09FC76FF05FFBF5
:102410008327C100138747002326E10003A5070097
:10242000EFF01FD26FF0DFF98327C1001387470059
:102430002326E10003A50700EFF09FCC6FF05FF8C3
:10244000374500001305850AEFF01FC26FF05FF7F4
:1024500013041400B387840083C70700E38207F6E0
:10246000938787FA93F6F70F13070002E362D7FE0C
:1024700093972600374700001307876BB387E70061
:1024800083A70700678007008320C101032481011F
:10249000832441011301010467800000130300003D
:1024A0006F008008131E2300B307C50103A70700B0
:1024B00083A8070093D8880003A8070013580801D1
:1024C0001377F70F93174700B387E74093971700E9
:1024D00093F8F80F13974800330717411317270095
:1024E00033071741B387E7001378F80F1317180065
:1024F000330707011317270033070741B387E700A6
:1025000013074006B3C7E70293F7F70F13970701C6
:102510001398870033070701338EC501B307F7000F
:102520002320FE0013031300B307D602E36CF3F677
:1025300067800000130101FF23261100EFF05FC444
:10254000370501F8EFF09F9C9365250093F5F50F93
:10255000370501F8EFF01F9C9306100013061000DA
:10256000930500003705C0F8EFF01FC613062000E2
:10257000930510003705C0F8EFF01FC48320C10099
:102580001301010167800000130101FF23261100E0
:1025900083A7418363860702130730006382E70243
:1025A000130710006380E7089306000137069000C8
:1025B00093052000370511F8EFF05FC96F00800127
:1025C000930600013706100093052000370511F827
:1025D000EFF0DFC793071000130700009306000019
:1025E0001306000093052000370511F8EFF09FCE89
:1025F0001306400093052000370511F8EFF0DFD2F5
:102600009306000037D61100130606C49305200078
:10261000370511F8EFF0DFCE8320C100130101016F
:1026200067800000930600013706500093052000E4
:10263000370511F8EFF09FC16FF0DFF9130101FFCB
:1026400023261100232481006F00400383C7D18219
:1026500093F7F70F6384070283C6D1829387C197EC
:10266000B387D70023800700930610002386D1820A
:10267000A38601826F008000A3860182370501F8DE
:10268000EFF0DF8813750520630E0506370501F8A6
:10269000EFF0DF879375D50F370501F8EFF09F87CF
:1026A000370501F8EFF05F8013040500370501F8E6
:1026B000EFF0DF859365250093F5F50F370501F8F9
:1026C000EFF05F859307D000E302F4F89307A000D2
:1026D000E30EF4F683C7D18293F7F70F1307E003F5
:1026E000E36CF7F803C7D1829307170093F7F70F4E
:1026F000A386F1829387C197B387E7002380870081
:102700006FF0DFF783C7C18293F7F70F639A070073
:102710008320C100032481001301010167800000B0
:102720001384C1978347040093F7F70F238CF19626
:102730001385D197EFE0DF9323AAA1968347140076
:1027400093F7F70F2388F1966FF09FFC83C7C18240
:1027500093F7F70F6384073A2386018283C7819733
:10276000938707FD93F6F70F130740016368D73887
:10277000130101FF2326110093972600374700001D
:102780001307C773B387E70083A7070067800700B5
:1027900083C7019793F7F70F13071006638CE706BB
:1027A00083C7019793F7F70F13072006638EE70699
:1027B00083C7019793F7F70F130730066382E70883
:1027C00083C7019793F7F70F130740066386E7085F
:1027D00083C7019793F7F70F13075006638AE7083B
:1027E00083C7019793F7F70F13076006638EE70817
:1027F00083C7019793F7F70F130770066382E70A01
:1028000083C50197374500001305C51BEFF01FB6C0
:102810006F00000D23AA0182374500001305451102
:10282000EFF0DFB46F00C00B1307100023AAE182A2
:10283000374500001305C512EFF05FB36F00400A83
:102840001307200023AAE182374500001305451431
:10285000EFF0DFB16F00C0081307300023AAE18258
:10286000374500001305C515EFF05FB06F00400756
:102870001307400023AAE1823745000013054517DE
:10288000EFF0DFAE6F00C0051307500023AAE1820E
:10289000374500001305C518EFF05FAD6F00400429
:1028A0001307600023AAE182374500001305451A8B
:1028B000EFF0DFAB6F00C00283A74197939707014A
:1028C00093D70701370710F82320F7003706B0F831
:1028D000B7E5F5059385051013055000EFF00FE4FB
:1028E0008320C100130101016780000003A7419705
:1028F0001317070113570701B70710F823AAE700BA
:102900003706B0F8B7E5F5059385051013055000B7
:10291000EFF0CFE06FF0DFFC03A74197131707013B
:1029200013570701B70710F823ACE7003706B0F8D4
:10293000B7E5F5059385051013055000EFF00FDEA0
:102940006FF01FFA03A741971317070113570701E9
:10295000B70710F823AEE7003706B0F8B7E5F5057E
:102960009385051013055000EFF04FDB6FF05FF714
:1029700003A741971317070113570701B70710F86B
:1029800023A0E7023706B0F8B7E5F50593850510F3
:1029900013055000EFF08FD86FF09FF403A7419715
:1029A0001317070113570701B70710F823A2E7020F
:1029B0003706B0F8B7E5F505938505101305500007
:1029C000EFF0CFD56FF0DFF103A7419713170701A1
:1029D00013570701B70710F823A4E7023706B0F82A
:1029E000B7E5F5059385051013055000EFF00FD3FB
:1029F0006FF01FEF03A74197131707011357070144
:102A0000B70710F823A6E7023706B0F8B7E5F505D3
:102A10009385051013055000EFF04FD06FF05FEC79
:102A200003A741971317070113570701B70710F8BA
:102A300023A8E7023706B0F8B7E5F505938505103A
:102A400013055000EFF08FCD6FF09FE903A741977A
:102A50001317070113570701B70710F823AAE70256
:102A60003706B0F8B7E5F505938505101305500056
:102A7000EFF0CFCA6FF0DFE603A741971317070106
:102A800013570701B70710F823ACE7023706B0F871
:102A9000B7E5F5059385051013055000EFF00FC855
:102AA0006FF01FE403A7419713170701135707019E
:102AB000B70710F823AEE7023706B0F8B7E5F5051B
:102AC0009385051013055000EFF04FC56FF05FE1DF
:102AD00003A741971317070113570701B70710F80A
:102AE00023A0E7043706B0F8B7E5F5059385051090
:102AF00013055000EFF08FC26FF09FDE678000007B
:102B0000130101FF23261100232481006F00C0015F
:102B1000EFF0DFB2EFF09FC313060400930500004F
:102B20003705C0F8EFF0CFF0930500003705C0F887
:102B3000EFF04FEE13040500630E0502930710003B
:102B4000E308F4FC930760006312F40283A7018397
:102B5000E38407FC93052000370511F8EFF04FFEE2
:102B6000E31C05FAEFF05FA26FF01FFBEFF00F8997
:102B70006FF09FFA8320C10003248100130101013B
:102B800067800000130101FF232611002324810028
:102B9000374400001305441DEFF04FFD374500009A
:102BA00013058522EFF08FFC1305441DEFF00FFC99
:102BB0003745000013054526EFF04FFB3745000071
:102BC0001305852BEFF08FFA374500001305C5304C
:102BD000EFF0CFF93745000013050536EFF00FF998
:102BE000374500001305453BEFF04FF8374500002F
:102BF00013058540EFF08FF7374500001305C545F5
:102C0000EFF0CFF6374500001305054BEFF00FF658
:102C10008320C100032481001301010167800000AB
:102C200003250504137515006780000013070504CC
:102C3000930700212320F5048327070093F707015A
:102C4000E39C07FE67800000130101FF23261100AB
:102C5000232481001304050013050400EFF05FFC3A
:102C6000E31C05FE8320C100032481001301010140
:102C700067800000130101FF2326110013070042A3
:102C80002320E504EFF05FFC8320C1001301010164
:102C9000678000008327450093F70710E39C07FE39
:102CA00067800000130101FF232611001307103075
:102CB0002322E500EFF01FFE8320C1001301010174
:102CC000678000000325C5001375F50F1335150047
:102CD00067800000130101FE232E1100232C8100C8
:102CE000232A910023282101232631011304050002
:102CF0009384050013090600EFF05FF3B717000097
:102D0000938707B22320F40013050400EFF09FF926
:102D100013050400EFF01FFBEFF0CF8993D7840079
:102D2000B7190000938909B0B3E737012320F400F5
:102D300013050400EFF01FF713050400EFF09FF8F0
:102D4000EFF04F8793F4F40FB3E4340123209400A1
:102D500013050400EFF01FF513050400EFF09FF6D4
:102D6000EFF04F8533693901232024011305040056
:102D7000EFF05FF313050400EFF0DFF4EFF08F8363
:102D800013050400EFF01FEF8320C101032481012C
:102D900083244101032901018329C1001301010298
:102DA00067800000130101FF232611002324810006
:102DB0001304050013065000B73500009385B50EC7
:102DC000EFF05FF11306C000B73500009385B50E34
:102DD00013050400EFF01FF01306F00FB7350000E5
:102DE0009385A50013050400EFF0DFEE1306F00F46
:102DF000B73500009385B50013050400EFF09FED93
:102E000013065000B73500009385B50E1305040076
:102E1000EFF05FEC13069000B73500009385B50E18
:102E200013050400EFF01FEB8320C1000324810091
:102E30001301010167800000130101FF2326110027
:102E40002324810023229100232021011304050063
:102E5000138905009304060013D685009305C01658
:102E6000EFF05FE71376F90F9305D0161305040012
:102E7000EFF05FE613D684009305E0161305040017
:102E8000EFF05FE513F6F40F9305F0161305040059
:102E9000EFF05FE48320C10003248100832441001C
:102EA000032901001301010167800000130101FEE5
:102EB000232E1100232C8100232A91002328210195
:102EC000232631012324410113040500138A050040
:102ED00093090600138906009304070013D68500A2
:102EE00093054016EFF01FDF1376FA0F9305501687
:102EF00013050400EFF01FDE13D68900930560165A
:102F000013050400EFF01FDD13F6F90F930570169B
:102F100013050400EFF01FDC13568900930580169B
:102F200013050400EFF01FDB1376F90F93059016DD
:102F300013050400EFF01FDA13D684009305A016E2
:102F400013050400EFF01FD913F6F40F9305B01624
:102F500013050400EFF01FD88320C1010324810171
:102F600083244101032901018329C100032A81002F
:102F70001301010267800000130101FF23261100E5
:102F800023248100232291009304050013040600EA
:102F90009307200063F4B7009305300093072000E7
:102FA00063F487001304300013860500930540176F
:102FB00013850400EFF01FD2130604009305501789
:102FC00013850400EFF01FD18320C100032481008A
:102FD000832441001301010167800000130101FFF8
:102FE00023261100232481002322910013040500CD
:102FF000930406001386050093057015EFF09FCD2E
:1030000013D684001376F60093058015130504008B
:10301000EFF05FCC13F6F40F930590151305040041
:10302000EFF05FCB8320C1000324810083244100A3
:103030001301010167800000130101FF2326110025
:1030400023248100130405001306000093050010DB
:10305000EFF05FC813050400EFF0DFD41306100093
:103060009305401113050400EFF0DFC613060000BE
:103070009305801213050400EFF0DFC513068001ED
:103080009305A01213050400EFF0DFC4130600003F
:103090009305B01213050400EFF0DFC313064000E0
:1030A0009305001613050400EFF0DFC21306900528
:1030B0009305101613050400EFF0DFC11306D000CE
:1030C0009305201613050400EFF0DFC013068007F8
:1030D0009305301613050400EFF0DFBF1307B06E41
:1030E0009306402B37160000130676A29305802A1C
:1030F00013050400EFF09FDB13068043930500786F
:1031000013050400EFF05FD31306100093050017BA
:1031100013050400EFF01FBC1306100093051017F1
:1031200013050400EFF01FBB130600009305000019
:1031300013050400EFF05FE41306A0009305C01828
:1031400013050400EFF01FB91306A0009305D01873
:1031500013050400EFF01FB813065000930510305C
:1031600013050400EFF01FB713061000930530306D
:1031700013050400EFF01FB613063000930540302E
:1031800013050400EFF01FB513063000930550300F
:1031900013050400EFF01FB4130600009305603020
:1031A00013050400EFF01FB313069003930570306E
:1031B00013050400EFF01FB21306A0009305903032
:1031C00013050400EFF01FB1130610009305B03093
:1031D00013050400EFF01FB0130600009305C03084
:1031E00013050400EFF01FAF130620079305D0303E
:1031F00013050400EFF01FAE1306A00093059030F6
:1032000013050400EFF01FAD130610009305B03056
:1032100013050400EFF01FAC130600009305C03047
:1032200013050400EFF01FAB130620079305D03001
:1032300013050400EFF01FAA1306100093050010F9
:1032400013050400EFF01FA9130600209305900B4F
:1032500013050400EFF09FD81306D0009305201645
:1032600013050400EFF01FA713068007930530161F
:1032700013050400EFF01FA6130660009305001667
:1032800013050400EFF01FA51306300E930510166A
:1032900013050400EFF01FA4130640009305A015CA
:1032A00013050400EFF01FA3130640059305B015A6
:1032B00013050400EFF01FA213060000930520176A
:1032C00013050400EFF01FA18320C1000324810037
:1032D0001301010167800000130705049307002113
:1032E0002320F5048327070093F70701E39C07FEDB
:1032F000678000008327450093F70710E39C07FED3
:1033000067800000130101FF23261100130710300E
:103310002322E500EFF01FFE8320C100130101010D
:10332000678000000325C5001375F50F13351500E0
:103330006780000003254500135505011375F50F3F
:1033400067800000130101FF232611002324810060
:103350002322910013040500938405001305040043
:10336000EFF05FFDE30C05FE232094008320C100F5
:1033700003248100832441001301010167800000C0
:10338000130101FF2326110093050500370501F8FD
:10339000EFF05FFB8320C100130101016780000093
:1033A000130101FF232611002324810013040500CB
:1033B0006F00C00013041400EFF09FFC03450400ED
:1033C000E31A05FE8320C1000324810013010101DB
:1033D00067800000130101FF2326110023248100D0
:1033E00023229100930405001304C0016F004002E2
:1033F00033D784001377F700B74700009387070897
:10340000B387E70003C50700EFF09FF71304C4FF7D
:10341000E35004FE8320C100032481008324410083
:103420001301010167800000130101FF2326110031
:103430002324810023229100930405001304C0017A
:103440006F00400233D784001377F700B7470000BE
:1034500093874709B387E70003C50700EFF05FF2E2
:103460001304C4FFE35004FE8320C1000324810041
:10347000832441001301010167800000130101FF53
:10348000232611001375F50FEFF09FEF8320C10085
:103490001301010167800000130101FF23261100C1
:1034A000EFF01FF08320C1001301010167800000CD
:1034B000130101FD232611022324810223229102FC
:1034C0009304050063460500130401006F00C00269
:1034D0001305D002EFF09FFAB30490406FF0DFFEC7
:1034E0001307A000B3E7E402938707032300F40067
:1034F000B3C4E40213041400E39404FE9307010030
:10350000E300F4FE93070100630AF4001304F4FFE0
:1035100003450400EFF09FF66FF0DFFE8320C10249
:103520000324810283244102130101036780000008
:10353000130101FF232611001307000093077000F9
:1035400063C0E70293162700930700FFB397D700E5
:10355000B377F50063860700130717006FF01FFEAF
:10356000EFF09FEC8320C100130101016780000090
:10357000130101FF232611001307000093077000B9
:1035800063C0E70293162700930700FFB397D700A5
:10359000B377F50063860700130717006FF01FFE6F
:1035A000EFF05FE38320C100130101016780000099
:1035B000130101FF232611002324810023229100FF
:1035C0001304050093840500EFF01FD1B717000026
:1035D000938707B0B3E4F40023209400130504009C
:1035E000EFF05FD213050400EFF0DFD38320C100BA
:1035F000032481008324410013010101678000003E
:10360000130101FC232E1100232C8100232A910099
:10361000930405002322B1022324C1022326D102F0
:103620002328E102232AF102232C0103232E110374
:10363000930741022326F100130400006F00C0012C
:103640008327C100138747002326E10003A5070055
:10365000EFF0DFE213041400B387840003C5070012
:10366000630E050A93075002630EF506EFF01FE1A3
:103670006FF05FFE8327C100138747002326E10018
:1036800003A50700EFF05FE16FF0DFFC8327C100C7
:10369000138747002326E10003A50700EFF05FE151
:1036A0006FF05FFB8327C100138747002326E100EB
:1036B00003A50700EFF0DFEB6FF0DFF98327C10010
:1036C000138747002326E10003A50700EFF05FE61C
:1036D0006FF05FF8374500001305850AEFF0DFDB78
:1036E0006FF05FF713041400B387840083C70700EB
:1036F000E38207F6938787FA93F6F70F1307000222
:10370000E362D7FE93972600374700001307077937
:10371000B387E70083A70700678007008320C10104
:103720000324810183244101130101046780000007
:10373000130101FE232E1100232C8100232A910066
:103740002328210123263101130905009384050054
:1037500013850500EFE00FEB130400009307100042
:1037600063E8870AB7570000131724003307870060
:103770001317270093874781B387E70083C90700A2
:103780009385090013850400EFF09FE29307100072
:103790006306F500130414006FF05FFC232441015D
:1037A000375A000093172400B387870093972700A8
:1037B000130A4A81330AFA0093D6190003268A00B5
:1037C00093050900374500001305855BEFF05FE3C3
:1037D0008327CA006386070013850400E78007007B
:1037E000B75700001317240033078700131727006B
:1037F00093874781B387E70083A7070163800704A6
:1038000013850400E7800700032A81006F00400150
:1038100093050900374500001305055EEFF05FDEF4
:103820008320C10103248101832441010329010173
:103830008329C1001301010267800000032A81006F
:103840006FF01FFE130101FF2326110093050500F1
:1038500013050000EFF0DFED8320C100130101012B
:103860006780000003254500135505011375F50F0A
:1038700067800000130101FF23261100232481002B
:10388000232291001304050093840500130504000E
:10389000EFF05FFDE30C05FE232094008320C100C0
:1038A000032481008324410013010101678000008B
:1038B000130101FF232611002324810023229100FC
:1038C00093040500138405006F0000011304140025
:1038D00013850400EFF01FFA83450400E39805FE0A
:1038E0008320C100032481008324410013010101CE
:1038F000678000000325050413751500678000002C
:1039000013070504930700212320F50483270700EC
:1039100093F70701E39C07FE67800000130101FF96
:10392000232611002324810013040500130504003D
:10393000EFF05FFCE31C05FE8320C100032481003F
:103940001301010167800000130101FF232611000C
:10395000130700422320E504EFF05FFC8320C10041
:1039600013010101678000008327450093F70710CA
:10397000E39C07FE67800000130101FF232611006E
:10398000130710302322E500EFF01FFE8320C10053
:1039900013010101678000000325C5001375F50FB1
:1039A0001335150067800000130101FE232E11005E
:1039B000232C8100232A9100232821012326310171
:1039C000130405009384050013090600EFF05FF36C
:1039D000B7170000938747B32320F40013050400B2
:1039E000EFF09FF913050400EFF01FFBEFE08FBC31
:1039F00093D78400B7190000938909B0B3E7370162
:103A00002320F40013050400EFF01FF71305040052
:103A1000EFF09FF8EFE00FBA93F4F40FB3E4340142
:103A20002320940013050400EFF01FF51305040094
:103A3000EFF09FF6EFE00FB833693901232024013E
:103A400013050400EFF05FF313050400EFF0DFF45B
:103A5000EFE04FB613050400EFF01FEF8320C10124
:103A60000324810183244101032901018329C10029
:103A70001301010267800000130101FF23261100DA
:103A80001306100093050010EFF01FF28320C10011
:103A90001301010167800000130101FF23261100BB
:103AA0001306000093050010EFF01FF08320C10003
:103AB0001301010167800000130101FF232611009B
:103AC00023248100232291009304050013040000A5
:103AD0006F008002B757000013172400938747CA6E
:103AE000B387E70003C6270083D5070013850400CA
:103AF000EFF09FEB130414009307F002E3FC87FC44
:103B00008320C100032481008324410013010101AB
:103B100067800000130101FF23261100232291007A
:103B20009304050063860508930710006382F50C73
:103B3000930720006396F5062324810013040000F8
:103B40009307E00563EC870AB757000013172400BA
:103B500093870785B387E70003C6270083D507004F
:103B600013850400EFF05FE4130414006FF05FFDB1
:103B7000B757000013172400938787B3B387E70074
:103B800003C6270083D5070013850400EFF0DFE1AB
:103B9000130414009307A005E3FC87FC03248100B1
:103BA0008320C100832441001301010167800000CC
:103BB00023248100130400006FF0DFFDB7570000DD
:103BC000131724009387C79CB387E70003C6270019
:103BD00083D5070013850400EFF01FDD13041400E4
:103BE0009307A005E3FC87FC032481006FF05FFBD3
:103BF00023248100130400006FF09FFE0324810042
:103C00006FF01FFA130101FF232611002324810006
:103C10002322910093040500130400006F0040026A
:103C20001317240093878181B387E70003C6270019
:103C300083D5070013850400EFF01FD71304140089
:103C400093071000E3FE87FC8320C100032481005A
:103C5000832441001301010167800000130101FF6B
:103C600023261100232481001304050013060000FD
:103C7000B7C5000093858542EFF01FD313064000BF
:103C8000B7C500009385954213050400EFF0DFD11E
:103C90008320C1000324810013010101678000001B
:103CA000130101FE232E1100232C8100232A9100F1
:103CB00023282101232631019309050093040000E4
:103CC0006F004006139904011359090193079000EE
:103CD000B3E7F402375400001304C4833304F40040
:103CE000B7850000938505B1B305B900034604000C
:103CF0009395050193D5050113850900EFF0DFCAFF
:103D0000B7870000938707C0B305F9000346940006
:103D10009395050193D5050113850900EFF0DFC8E0
:103D20009384140093075003E3DE97F88320C101C6
:103D30000324810183244101032901018329C10056
:103D40001301010267800000130101FF2326110007
:103D50002324810013040500EFF09FBAB717000079
:103D6000938787B12320F40013050400EFF0DFC030
:103D700013050400EFF05FC2EFE0CF83B717000038
:103D8000938727B02320F40013050400EFF0DFBE73
:103D900013050400EFF05FC0EFE0CF81B71700001C
:103DA000938707B02320F40013050400EFF0DFBC75
:103DB00013050400EFF05FB98320C10003248100E4
:103DC0001301010167800000130101FF2326110088
:103DD0002324810013040500EFF09FB2B717000001
:103DE000938787B12320F40013050400EFF0DFB8B8
:103DF00013050400EFF05FBAEFD0DFFBB717000048
:103E0000938727B02320F40013050400EFF0DFB6FA
:103E100013050400EFF05FB8EFD0DFF9B71700002B
:103E2000938717B02320F40013050400EFF0DFB4EC
:103E300013050400EFF05FB18320C100032481006B
:103E40001301010167800000130101FE232E110000
:103E5000232C8100232A91002328210123263101CC
:103E600013040500938405009307E03F63F4B70053
:103E70009304F03F13050400EFF09FA8B71900006A
:103E8000938989B12320340113050400EFF0DFAEDC
:103E900013050400EFF05FB0EFD0DFF1B7170000BB
:103EA000938737B02320F40013050400EFF0DFAC54
:103EB00013050400EFF05FAEEFD0DFEF93D784007F
:103EC00093F7370037190000130909B0B3E727014A
:103ED0002320F40013050400EFF01FAA13050400CB
:103EE000EFF09FABEFD01FED13050400EFF0DFA55F
:103EF00013050400EFF0DFA02320340113050400B4
:103F0000EFF09FA713050400EFF01FA9EFD09FEA81
:103F1000B7170000938747B02320F400130504006F
:103F2000EFF09FA513050400EFF01FA7EFD09FE867
:103F300093F4F40FB3E42401232094001305040048
:103F4000EFF09FA313050400EFF01FA5EFD09FE64D
:103F500013050400EFF05F9F8320C101032481015A
:103F600083244101032901018329C10013010102B6
:103F700067800000130101FF232611002324810024
:103F800013040500EFF05FB113050400EFF0DFB29A
:103F900013050400EFF0DFD09305100013050400B3
:103FA000EFF05FB713050400EFF0DFC51305040061
:103FB000EFF0DFCA13050400EFF01FD99305C02B03
:103FC00013050400EFF05FE813050400EFF0DFDFF6
:103FD000B745000093850562370501F8EFF05F8D66
:103FE0008320C100032481001301010167800000C8
:103FF000130101FC2320110023225100232461001E
:10400000232671002328A100232AB100232CC100FC
:10401000232ED1002320E1022322F10223240103D5
:10402000232611032328C103232AD103232CE103D0
:10403000232EF103EFD05FC58320010083224100CE
:10404000032381008323C10003250101832541014E
:10405000032681018326C101032701028327410230
:10406000032881028328C102032E0103832E41030A
:10407000032F8103832FC103130101047300203038
:10408000303132333435363738394142434445468E
:104090000000000030313233343536373839616250
:1040A00063646566000000003C466C6F6174696E75
:1040B0006720706F696E74207072696E74696E67C4
:1040C000206E6F7420656E61626C652E20506C6589
:1040D00061736520456E61626C652069742061744E
:1040E000206273702E682066697273742E2E2E3EC5
:1040F000000000000A2A2A2A204352415348202A5D
:104100002A2A0A00417373657274206661696C75AE
:1041100072650A0053656C65637465642044656D5F
:104120006F204D6F64653A20610A0D0053656C6520
:10413000637465642044656D6F204D6F64653A203B
:10414000620A0D0053656C65637465642044656D97
:104150006F204D6F64653A20630A0D0053656C65EE
:10416000637465642044656D6F204D6F64653A200B
:10417000640A0D0053656C65637465642044656D65
:104180006F204D6F64653A20650A0D0053656C65BC
:10419000637465642044656D6F204D6F64653A20DB
:1041A000660A0D0053656C65637465642044656D33
:1041B0006F204D6F64653A20670A0D00496E766185
:1041C0006C69642044656D6F204D6F64653A2025ED
:1041D000630A0D003D3D3D3D3D3D3D3D3D3D3D3D89
:1041E0003D3D3D3D3D3D3D3D3D3D3D3D3D3D3D3DFF
:1041F0003D3D3D3D3D3D3D3D3D3D3D3D3D3D3D3DEF
:104200003D3D3D3D3D3D3D3D3D3D3D3D3D3D3D3DDE
:104210003D3D3D3D3D3D3D3D3D3D3D3D3D3D3D3DCE
:104220003D3D3D3D0A0D0000202020202020202083
:1042300020202020202020202020202049535020F2
:104240004578616D706C652044657369676E2053B5
:1042500063656E6172696F2053656C656374696F25
:104260006E0A0D00276127203A2043616D65726157
:104270002043617074757265202B2048444D49209D
:10428000446973706C617920202020202020202038
:10429000202020202020202020202020202020201E
:1042A000202020202020202020202020202020200E
:1042B000202020200A0D0000276227203A20436199
:1042C0006D6572612043617074757265202B205298
:1042D000474232477261797363616C652028535796
:1042E00029202B2048444D4920446973706C617922
:1042F00020202020202020202020202020202020BE
:1043000020202020202020200A0D000027632720C5
:104310003A2043616D657261204361707475726506
:10432000202B2052474232477261797363616C657A
:104330002028535729202B20536F62656C20284872
:104340005729202B2048444D4920446973706C61E3
:104350007920202020202020202020200A0D00006D
:10436000276427203A2043616D65726120436170A4
:1043700074757265202B20524742324772617973FF
:1043800063616C652028485729202B2048444D49FB
:1043900020446973706C6179202020202020202027
:1043A000202020202020202020202020202020200D
:1043B0000A0D0000276527203A2043616D65726170
:1043C0002043617074757265202B2052474232473A
:1043D0007261797363616C65202620536F62656C2E
:1043E0002028485729202B2048444D4920446973F0
:1043F000706C617920202020202020202020202087
:10440000202020200A0D0000276627203A20436143
:104410006D6572612043617074757265202B205246
:10442000474232477261797363616C65202620537D
:104430006F62656C20262044696C6174696F6E2020
:1044400028485729202B2048444D4920446973703F
:104450006C617920202020200A0D0000276727208A
:104460003A2043616D6572612043617074757265B5
:10447000202B2052474232477261797363616C6529
:10448000202620536F62656C20262045726F736969
:104490006F6E202028485729202B2048444D492062
:1044A000446973706C617920202020200A0D00007F
:1044B0003D3D3D3D3D3D3D3D3D3D3D3D3D3D3D3D2C
:1044C0003D3D3D3D3D3D3D3D3D3D3D3D3D3D3D3D1C
:1044D0003D3D3D3D3D3D3D3D3D3D3D3D3D3D3D3D0C
:1044E0003D3D3D3D3D3D3D3D3D3D3D3D3D3D3D3DFC
:1044F0003D3D3D3D3D3D3D3D3D3D3D3D3D3D3D3DEC
:104500000A0A0D000A0D48656C6C6F204566696EDD
:104510006978204564676520566973696F6E20531A
:104520006F4321210A0A0D00496E69742043616DB1
:104530006572612E2E2E2E2E00000000446F6E65D7
:104540000A0D0000496E697420444D412E2E2E2E16
:104550002E000000446F6E652021210A0A0D000024
:10456000496E697469616C697A6520746573742039
:10457000646973706C617920636F6E74656E742EFC
:104580002E0A0D000A5472696767657220646973A8
:10459000706C617920444D412E2E0A0D0000000000
:1045A00044656661756C742044656D6F204D6F6461
:1045B000653A20610A0D000043616D6572612564F2
:1045C0002064657465637465643A202573202861EE
:1045D0006464723A20307825303258290D0A000080
:1045E00063616D25642064657465637465643A2055
:1045F0004E6F6E650A000000506943616D2076328F
:104600002028494D58323139290000005069436152
:104610006D2076332028494D583730382900000066
:104620000A0D446F6E652043616D65726120496EAD
:1046300069740000701B0000B01B0000B01B00007C
:10464000B01B0000B01B0000B01B0000B01B00003E
:10465000B01B0000B01B0000B01B0000B01B00002E
:104660000C1B0000581B0000B01B0000A01B00002A
:10467000B01B0000B01B0000B01B0000B01B00000E
:10468000B01B0000B01B0000B01B0000B01B0000FE
:10469000B01B0000B01B0000B01B0000B01B0000EE
:1046A000401B0000B01B0000B01B0000B01B00004E
:1046B000B01B0000881B00001024000050240000E4
:1046C000502400005024000050240000502400001A
:1046D000502400005024000050240000502400000A
:1046E00050240000AC230000F823000050240000F8
:1046F00040240000502400005024000050240000FA
:1047000050240000502400005024000050240000D9
:1047100050240000502400005024000050240000C9
:1047200050240000E023000050240000502400002A
:10473000502400005024000028240000B828000065
:10474000EC2800001829000044290000702900000E
:104750009C290000C8290000F4290000202A00003C
:104760004C2A0000E0280000E0280000E0280000BB
:10477000E0280000E0280000E0280000E028000019
:10478000782A0000A42A0000D02A00009027000008
:10479000A4360000E4360000E4360000E4360000F1
:1047A000E4360000E4360000E4360000E4360000A1
:1047B000E4360000E4360000E43600004036000035
:1047C0008C360000E4360000D4360000E4360000E9
:1047D000E4360000E4360000E4360000E436000071
:1047E000E4360000E4360000E4360000E436000061
:1047F000E4360000E4360000E436000074360000C1
:10480000E4360000E4360000E4360000E436000040
:10481000BC3600002000000001000000F845000048
:1048200038300000000000003400000002000000EA
:104830000C460000743F0000783A00004C4C4C4697
:104840003E38353535353535383E464C4C4C000014
:104850004203140043036000400309004103B50014
:104860004403010045038000460300004703D800CD
:104870004803100049037F004A0309004B03470027
:1048800020020100220202000009000001091100BB
:1048900002090A000032010001320100D532000095
:1048A000D6320000DB320100DF3200000C350000A0
:1048B0000D35000008040000090400000A0400008F
:1048C0000B0400000C0407000D0480000E0404001B
:1048D0000F0438004C0307004D0380004E03040012
:1048E0004F03380001030500030302000503020023
:1048F000060300000703A2000B0302000D030400DF
:104900000E0301000F032C0010030100A03C000067
:10491000A13C0000A43C0000A53C0000A63C000017
:10492000A73C2800AA3C0000AB3C0000B83C0000BB
:10493000B93C3000BA3C0000BB3C0000BC3C00006D
:10494000BD3C3200BE3C0000BF3C000002020B0038
:104950000302A400240202002502E900163105002A
:104960001731D2000402030005028400160203007E
:104970001702840018020100190200000E02010053
:104980000F02000018310300193184001A310100B0
:104990001B3100001A3400001B3400001C340000DE
:1049A0001D3400001E3400001F349000203400002D
:1049B00021346C006033010061330100663309006B
:1049C00067330000683305006933100042031D009F
:1049D000430310004003050041032000440301008D
:1049E00045038000460300004703D8004803100039
:1049F00049037F004A0309004B034700200262007D
:104A00002202000000090100010922000209080039
:104A10000032410001324100D5320000D6320000A0
:104A2000DB320100DF3200000C3500000D350000E4
:104A300008040000090400000A0400000B04000040
:104A40000C0407000D0480000E0404000F0438005D
:104A50004C0307004D0380004E0304004F03380051
:104A60000103050003030200050302000603000022
:104A700007037A000B0302000D030400100301007A
:104A8000A03C0000A13C3C00A43C0000A53C3C0034
:104A9000A63C0000A73C0000AA3C0000AB3C000084
:104AA000B83C0000B93C1C00BA3C0000BB3C08000C
:104AB000BC3C0000BD3C1E00BE3C0000BF3C0A00E8
:104AC0000202030003021300240220002502F40066
:104AD000163101001731F4000402030005028400BE
:104AE00016020000170270001802010019020000EF
:104AF0000E0201000F020000183100001931700091
:104B00001A3101001B3100001A3400001B34000070
:104B10001C3400001D3400001E3400001F349000BF
:104B20002034000021346C0066330000673300003D
:104B3000683300006933000042031D004303100086
:104B40004003060041034000440300004503000009
:104B50004603000047030000480311004903FF001B
:104B60004A030A004B031F002002620022020100D8
:104B7000000900000109110002090A0000320100C9
:104B800001320100D5320100D6320000DB320100D3
:104B9000DF3200000C3500000D3500000804000075
:104BA000090400000A0400000B0400000C040700C4
:104BB0000D0480000E0404000F0438004C030700AD
:104BC0004D0380004E0304004F033800010305002D
:104BD00003030200050302000603000007037C0034
:104BE0000B0302000D03040010030100A03C0000B1
:104BF000A13C6400A43C0000A53C0000A63C0000D1
:104C0000A73C0000AA3C0000AB3C0000B83C000000
:104C1000B93C0800BA3C0000BB3C0000BC3C0000B2
:104C2000BD3C3C00BE3C0000BF3C00000202030053
:104C300003022000240201002502F40016310100C5
:104C40001731F400040203000502200016020000E0
:104C50001702000018020100190200000E020300F2
:104C60000F02000018310000193100001A31010054
:104C70001B3100001A3400001B3400001C340000FB
:104C80001D3400001E3401001F34200020340000B9
:104C90002134D80066330000673300006833000019
:104CA00069330000000100003601180037010000E0
:104CB000F0330200F133050062300000633012006F
:104CC00068300000693012006A3000006B3030003C
:104CD00076300000773030007830000079303000D6
:104CE000545E0C00446E0000B6B0010029E80000DC
:104CF00001F0080003F008000DF010000FF01000A4
:104D000031F0080033F008003DF010003FF01000D3
:104D100012010A0013010A00140101008E0B0100A8
:104D20008F0B0000940B0100950B00000034010074
:104D30007834010079341C00913001009230000079
:104D400019340000F1BC02009430010095300100DC
:104D500062330000633300006433000065330000F9
:104D60003801010000202020202020202020282899
:104D7000282828202020202020202020202020201B
:104D8000202020202088101010101010101010105B
:104D9000101010101004040404040404040404108B
:104DA0001010101010104141414141410101010119
:104DB00001010101010101010101010101010101E3
:104DC00010101010101042424242424202020202EF
:104DD00002020202020202020202020202020202B3
:104DE0001010101020000000000000000000000063
:104DF00000000000000000000000000000000000B3
:104E000000000000000000000000000000000000A2
:104E10000000000000000000000000000000000092
:104E20000000000000000000000000000000000082
:104E30000000000000000000000000000000000072
:104E40000000000000000000000000000000000062
:104E50000000000000000000000000000000000052
:104E6000000000000000000000000000D04F000023
:104E700038500000A05000000000000000000000BA
:104E80000000000000000000000000000000000022
:104E90000000000000000000000000000000000012
:104EA0000000000000000000000000000000000002
:104EB00000000000000000000000000000000000F2
:104EC00000000000000000000000000000000000E2
:104ED00000000000000000000000000000000000D2
:104EE00000000000000000000000000000000000C2
:104EF00000000000000000000000000000000000B2
:104F000001000000000000000E33CDAB34126DE64E
:104F1000ECDE05000B0000000000000000000000B7
:104F20000000000000000000000000000000000081
:104F30000000000000000000000000000000000071
:104F40000000000000000000000000000000000061
:104F50000000000000000000000000000000000051
:104F60000000000000000000000000000000000041
:104F70000000000000000000000000000000000031
:104F80000000000000000000000000000000000021
:104F90000000000000000000000000000000000011
:104FA0000000000000000000684E0000000000004B
:104FB0000E0301000F032C000000000000000000A1
:024FC0000000EF
:0400000300001000E9
:00000001FF
